{
  "address": "0x06d889F4678058D95058Ef431035b2f5d4A27B1a",
  "abi": [
    {
      "inputs": [
        {
          "internalType": "uint256",
          "name": "_numValidators",
          "type": "uint256"
        },
        {
          "internalType": "uint256",
          "name": "_adminFee",
          "type": "uint256"
        },
        {
          "internalType": "address[]",
          "name": "addresses",
          "type": "address[]"
        }
      ],
      "stateMutability": "nonpayable",
      "type": "constructor"
    },
    {
      "inputs": [],
      "name": "AmountTooHigh",
      "type": "error"
    },
    {
      "inputs": [],
      "name": "NoValidators",
      "type": "error"
    },
    {
      "anonymous": false,
      "inputs": [
        {
          "indexed": false,
          "internalType": "address",
          "name": "account",
          "type": "address"
        }
      ],
      "name": "Paused",
      "type": "event"
    },
    {
      "anonymous": false,
      "inputs": [
        {
          "indexed": true,
          "internalType": "bytes32",
          "name": "role",
          "type": "bytes32"
        },
        {
          "indexed": true,
          "internalType": "bytes32",
          "name": "previousAdminRole",
          "type": "bytes32"
        },
        {
          "indexed": true,
          "internalType": "bytes32",
          "name": "newAdminRole",
          "type": "bytes32"
        }
      ],
      "name": "RoleAdminChanged",
      "type": "event"
    },
    {
      "anonymous": false,
      "inputs": [
        {
          "indexed": true,
          "internalType": "bytes32",
          "name": "role",
          "type": "bytes32"
        },
        {
          "indexed": true,
          "internalType": "address",
          "name": "account",
          "type": "address"
        },
        {
          "indexed": true,
          "internalType": "address",
          "name": "sender",
          "type": "address"
        }
      ],
      "name": "RoleGranted",
      "type": "event"
    },
    {
      "anonymous": false,
      "inputs": [
        {
          "indexed": true,
          "internalType": "bytes32",
          "name": "role",
          "type": "bytes32"
        },
        {
          "indexed": true,
          "internalType": "address",
          "name": "account",
          "type": "address"
        },
        {
          "indexed": true,
          "internalType": "address",
          "name": "sender",
          "type": "address"
        }
      ],
      "name": "RoleRevoked",
      "type": "event"
    },
    {
      "anonymous": false,
      "inputs": [
        {
          "indexed": false,
          "internalType": "address",
          "name": "account",
          "type": "address"
        }
      ],
      "name": "Unpaused",
      "type": "event"
    },
    {
      "anonymous": false,
      "inputs": [
        {
          "indexed": false,
          "internalType": "bytes",
          "name": "_withdrawalCredential",
          "type": "bytes"
        }
      ],
      "name": "WithdrawalCredentialSet",
      "type": "event"
    },
    {
      "stateMutability": "payable",
      "type": "fallback"
    },
    {
      "inputs": [],
      "name": "DEFAULT_ADMIN_ROLE",
      "outputs": [
        {
          "internalType": "bytes32",
          "name": "",
          "type": "bytes32"
        }
      ],
      "stateMutability": "view",
      "type": "function"
    },
    {
      "inputs": [],
      "name": "DEPOSIT_CONTRACT",
      "outputs": [
        {
          "internalType": "contract IDepositContract",
          "name": "",
          "type": "address"
        }
      ],
      "stateMutability": "view",
      "type": "function"
    },
    {
      "inputs": [],
      "name": "GOV",
      "outputs": [
        {
          "internalType": "bytes32",
          "name": "",
          "type": "bytes32"
        }
      ],
      "stateMutability": "view",
      "type": "function"
    },
    {
      "inputs": [],
      "name": "NOR",
      "outputs": [
        {
          "internalType": "bytes32",
          "name": "",
          "type": "bytes32"
        }
      ],
      "stateMutability": "view",
      "type": "function"
    },
    {
      "inputs": [],
      "name": "adminFee",
      "outputs": [
        {
          "internalType": "uint256",
          "name": "",
          "type": "uint256"
        }
      ],
      "stateMutability": "view",
      "type": "function"
    },
    {
      "inputs": [],
      "name": "adminFeeTotal",
      "outputs": [
        {
          "internalType": "uint256",
          "name": "",
          "type": "uint256"
        }
      ],
      "stateMutability": "view",
      "type": "function"
    },
    {
      "inputs": [
        {
          "internalType": "bytes[]",
          "name": "pubkeys",
          "type": "bytes[]"
        },
        {
          "internalType": "bytes[]",
          "name": "signatures",
          "type": "bytes[]"
        },
        {
          "internalType": "bytes32[]",
          "name": "depositDataRoots",
          "type": "bytes32[]"
        }
      ],
      "name": "batchDepositToEth2",
      "outputs": [],
      "stateMutability": "nonpayable",
      "type": "function"
    },
    {
      "inputs": [],
      "name": "buffer",
      "outputs": [
        {
          "internalType": "uint256",
          "name": "",
          "type": "uint256"
        }
      ],
      "stateMutability": "view",
      "type": "function"
    },
    {
      "inputs": [],
      "name": "costPerValidator",
      "outputs": [
        {
          "internalType": "uint256",
          "name": "",
          "type": "uint256"
        }
      ],
      "stateMutability": "view",
      "type": "function"
    },
    {
      "inputs": [],
      "name": "curValidatorShares",
      "outputs": [
        {
          "internalType": "uint256",
          "name": "",
          "type": "uint256"
        }
      ],
      "stateMutability": "view",
      "type": "function"
    },
    {
      "inputs": [],
      "name": "deposit",
      "outputs": [],
      "stateMutability": "payable",
      "type": "function"
    },
    {
      "inputs": [],
      "name": "depositAndStake",
      "outputs": [],
      "stateMutability": "payable",
      "type": "function"
    },
    {
      "inputs": [
        {
          "internalType": "address",
          "name": "dest",
          "type": "address"
        }
      ],
      "name": "depositAndStakeFor",
      "outputs": [],
      "stateMutability": "payable",
      "type": "function"
    },
    {
      "inputs": [
        {
          "internalType": "address",
          "name": "dest",
          "type": "address"
        }
      ],
      "name": "depositFor",
      "outputs": [],
      "stateMutability": "payable",
      "type": "function"
    },
    {
      "inputs": [],
      "name": "donate",
      "outputs": [],
      "stateMutability": "payable",
      "type": "function"
    },
    {
      "inputs": [
        {
          "internalType": "bytes32",
          "name": "role",
          "type": "bytes32"
        }
      ],
      "name": "getRoleAdmin",
      "outputs": [
        {
          "internalType": "bytes32",
          "name": "",
          "type": "bytes32"
        }
      ],
      "stateMutability": "view",
      "type": "function"
    },
    {
      "inputs": [
        {
          "internalType": "bytes32",
          "name": "role",
          "type": "bytes32"
        },
        {
          "internalType": "address",
          "name": "account",
          "type": "address"
        }
      ],
      "name": "grantRole",
      "outputs": [],
      "stateMutability": "nonpayable",
      "type": "function"
    },
    {
      "inputs": [
        {
          "internalType": "bytes32",
          "name": "role",
          "type": "bytes32"
        },
        {
          "internalType": "address",
          "name": "account",
          "type": "address"
        }
      ],
      "name": "hasRole",
      "outputs": [
        {
          "internalType": "bool",
          "name": "",
          "type": "bool"
        }
      ],
      "stateMutability": "view",
      "type": "function"
    },
    {
      "inputs": [],
      "name": "maxValidatorShares",
      "outputs": [
        {
          "internalType": "uint256",
          "name": "",
          "type": "uint256"
        }
      ],
      "stateMutability": "view",
      "type": "function"
    },
    {
      "inputs": [
        {
          "internalType": "uint256",
          "name": "shares",
          "type": "uint256"
        }
      ],
      "name": "migrateShares",
      "outputs": [],
      "stateMutability": "nonpayable",
      "type": "function"
    },
    {
      "inputs": [],
      "name": "numValidators",
      "outputs": [
        {
          "internalType": "uint256",
          "name": "",
          "type": "uint256"
        }
      ],
      "stateMutability": "view",
      "type": "function"
    },
    {
      "inputs": [],
      "name": "paused",
      "outputs": [
        {
          "internalType": "bool",
          "name": "",
          "type": "bool"
        }
      ],
      "stateMutability": "view",
      "type": "function"
    },
    {
      "inputs": [],
      "name": "refundFeesOnWithdraw",
      "outputs": [
        {
          "internalType": "bool",
          "name": "",
          "type": "bool"
        }
      ],
      "stateMutability": "view",
      "type": "function"
    },
    {
      "inputs": [],
      "name": "remainingSpaceInEpoch",
      "outputs": [
        {
          "internalType": "uint256",
          "name": "",
          "type": "uint256"
        }
      ],
      "stateMutability": "view",
      "type": "function"
    },
    {
      "inputs": [
        {
          "internalType": "bytes32",
          "name": "role",
          "type": "bytes32"
        },
        {
          "internalType": "address",
          "name": "account",
          "type": "address"
        }
      ],
      "name": "renounceRole",
      "outputs": [],
      "stateMutability": "nonpayable",
      "type": "function"
    },
    {
      "inputs": [
        {
          "internalType": "bytes32",
          "name": "role",
          "type": "bytes32"
        },
        {
          "internalType": "address",
          "name": "account",
          "type": "address"
        }
      ],
      "name": "revokeRole",
      "outputs": [],
      "stateMutability": "nonpayable",
      "type": "function"
    },
    {
      "inputs": [
        {
          "internalType": "address",
          "name": "_feeCalculatorAddr",
          "type": "address"
        }
      ],
      "name": "setFeeCalc",
      "outputs": [],
      "stateMutability": "nonpayable",
      "type": "function"
    },
    {
      "inputs": [
        {
          "internalType": "uint256",
          "name": "_numValidators",
          "type": "uint256"
        }
      ],
      "name": "setNumValidators",
      "outputs": [],
      "stateMutability": "nonpayable",
      "type": "function"
    },
    {
      "inputs": [
        {
          "internalType": "bytes",
          "name": "_newWithdrawalCreds",
          "type": "bytes"
        }
      ],
      "name": "setWithdrawalCredential",
      "outputs": [],
      "stateMutability": "nonpayable",
      "type": "function"
    },
    {
      "inputs": [
        {
          "internalType": "uint256",
          "name": "amt",
          "type": "uint256"
        }
      ],
      "name": "slash",
      "outputs": [],
      "stateMutability": "nonpayable",
      "type": "function"
    },
    {
      "inputs": [
        {
          "internalType": "bytes4",
          "name": "interfaceId",
          "type": "bytes4"
        }
      ],
      "name": "supportsInterface",
      "outputs": [
        {
          "internalType": "bool",
          "name": "",
          "type": "bool"
        }
      ],
      "stateMutability": "view",
      "type": "function"
    },
    {
      "inputs": [],
      "name": "togglePause",
      "outputs": [],
      "stateMutability": "nonpayable",
      "type": "function"
    },
    {
      "inputs": [],
      "name": "toggleWithdrawRefund",
      "outputs": [],
      "stateMutability": "nonpayable",
      "type": "function"
    },
    {
      "inputs": [
        {
          "internalType": "uint256",
          "name": "amount",
          "type": "uint256"
        },
        {
          "internalType": "address",
          "name": "dest",
          "type": "address"
        }
      ],
      "name": "unstakeAndWithdraw",
      "outputs": [],
      "stateMutability": "nonpayable",
      "type": "function"
    },
    {
      "inputs": [],
      "name": "validatorsCreated",
      "outputs": [
        {
          "internalType": "uint256",
          "name": "",
          "type": "uint256"
        }
      ],
      "stateMutability": "view",
      "type": "function"
    },
    {
      "inputs": [
        {
          "internalType": "uint256",
          "name": "amount",
          "type": "uint256"
        }
      ],
      "name": "withdraw",
      "outputs": [],
      "stateMutability": "nonpayable",
      "type": "function"
    },
    {
      "inputs": [
        {
          "internalType": "uint256",
          "name": "amount",
          "type": "uint256"
        }
      ],
      "name": "withdrawAdminFee",
      "outputs": [],
      "stateMutability": "nonpayable",
      "type": "function"
    },
    {
      "inputs": [
        {
          "internalType": "uint256",
          "name": "amount",
          "type": "uint256"
        },
        {
          "internalType": "address",
          "name": "dest",
          "type": "address"
        }
      ],
      "name": "withdrawTo",
      "outputs": [],
      "stateMutability": "nonpayable",
      "type": "function"
    },
    {
      "inputs": [],
      "name": "withdrawalPubKey",
      "outputs": [
        {
          "internalType": "bytes",
          "name": "",
          "type": "bytes"
        }
      ],
      "stateMutability": "view",
      "type": "function"
    },
    {
      "stateMutability": "payable",
      "type": "receive"
    }
  ],
  "transactionHash": "0xeeba4ee2d5070aa36eedc89f733c87205f3f474af8b0bf73f436248bceb216fa",
  "args": [
    1000,
    0,
    [
      "0x16888a69bDfb3Adcf8CB1F3d24Ac1Ee320e4A7e8",
      "0x31e7d36377c664BeAAb967fB46E38c59069996eC",
      "0x61A89BF0Ed0c2d1c365Db15660880C3d227A05D3",
      "0x610c92c70eb55dfeafe8970513d13771da79f2e0",
      "0xD9b3fB168D5B100d9d7c7b753092F3b86e723138"
    ]
  ],
  "numDeployments": 1,
  "solcInputHash": "d5c4e8b77fe999241905bb33844ed6ed",
  "bytecode": "0x60e06040523480156200001157600080fd5b50604051620023f5380380620023f5833981016040819052620000349162000327565b806004815181106200004a576200004a62000410565b60209081029190910101516001805460ff191681556002556001600160a01b03166080528051819060009062000084576200008462000410565b6020026020010151600b60016101000a8154816001600160a01b0302191690836001600160a01b0316021790555080600181518110620000c857620000c862000410565b60200260200101516001600160a01b031660a0816001600160a01b03168152505080600281518110620000ff57620000ff62000410565b60209081029190910101516001600160a01b0390811660c081905260a05160405163095ea7b360e01b8152600481019290925260001960248301529091169063095ea7b3906044016020604051808303816000875af115801562000167573d6000803e3d6000fd5b505050506040513d601f19601f820116820180604052508101906200018d919062000426565b5060048290556005839055678ac7230489e80000600a55620001b9826801bc16d674ec80000062000451565b600655620001e87f6018e1702a3123d04beb23a17c959ee998830f34f27bcf3823bfbecf0779f4ea3362000240565b620002377f8eeeb5290718f324aa0965d35cf24b6163c00698ab277824ce00bdf229264ecf8260038151811062000223576200022362000410565b60200260200101516200024060201b60201c565b50505062000473565b6200024c8282620002c9565b620002c5576000828152602081815260408083206001600160a01b03851684529091529020805460ff19166001179055620002843390565b6001600160a01b0316816001600160a01b0316837f2f8788117e7eff1d82e926ec794901d17c78024a50270940304540a733656f0d60405160405180910390a45b5050565b6000828152602081815260408083206001600160a01b038516845290915290205460ff165b92915050565b634e487b7160e01b600052604160045260246000fd5b80516001600160a01b03811681146200032257600080fd5b919050565b6000806000606084860312156200033d57600080fd5b835160208086015160408701519295509350906001600160401b03808211156200036657600080fd5b818701915087601f8301126200037b57600080fd5b815181811115620003905762000390620002f4565b8060051b604051601f19603f83011681018181108582111715620003b857620003b8620002f4565b60405291825284820192508381018501918a831115620003d757600080fd5b938501935b828510156200040057620003f0856200030a565b84529385019392850192620003dc565b8096505050505050509250925092565b634e487b7160e01b600052603260045260246000fd5b6000602082840312156200043957600080fd5b815180151581146200044a57600080fd5b9392505050565b80820180821115620002ee57634e487b7160e01b600052601160045260246000fd5b60805160a05160c051611f28620004cd6000396000818161091f01528181610a2401528181610b490152610c8901526000818161094e01528181610f50015261114301526000818161040e01526112660152611f286000f3fe60806040526004361061021c5760003560e01c806391d1485411610122578063c86283c8116100a5578063ed88c68e1161006c578063ed88c68e14610223578063edaafe2014610621578063f26b342f14610637578063f317229f14610651578063ffd2ffb91461067157005b8063c86283c8146105ae578063cacda096146105ce578063d0e30db0146105e3578063d547741f146105eb578063eb52f3ae1461060b57005b8063b1b54567116100e9578063b1b5456714610519578063b8027e8314610539578063bef989d81461056d578063c4ae316814610583578063c6fe82871461059857005b806391d148541461049b578063a0be06f9146104bb578063a217fddf146104d1578063aa67c919146104e6578063acc2216a146104f957005b80633683c204116101aa57806366519bd61161017157806366519bd6146103f45780636b96736b146103fc5780636ebf9f9e1461044857806382e48a83146104685780638c1077991461047b57005b80633683c2041461037157806345bc4d10146103915780634d327025146103b15780635c975abb146103c65780635d593f8d146103de57005b8063248a9ca3116101ee578063248a9ca3146102cc5780632e1a7d4d146102fc5780632e6ea0cf1461031c5780632f2ff15d1461033157806336568abe1461035157005b806301ffc9a7146102255780630eec46311461025a578063180cb47f1461027c5780631efdfe6e146102ac57005b3661022357005b005b34801561023157600080fd5b506102456102403660046118ce565b610687565b60405190151581526020015b60405180910390f35b34801561026657600080fd5b5061026f6106be565b6040516102519190611948565b34801561028857600080fd5b5061029e600080516020611ed383398151915281565b604051908152602001610251565b3480156102b857600080fd5b506102236102c736600461195b565b61074c565b3480156102d857600080fd5b5061029e6102e736600461195b565b60009081526020819052604090206001015490565b34801561030857600080fd5b5061022361031736600461195b565b6107b7565b34801561032857600080fd5b506102236107c5565b34801561033d57600080fd5b5061022361034c36600461198b565b6107f2565b34801561035d57600080fd5b5061022361036c36600461198b565b610817565b34801561037d57600080fd5b5061022361038c3660046119cd565b61089a565b34801561039d57600080fd5b506102236103ac36600461195b565b6108cd565b3480156103bd57600080fd5b5061029e6109ae565b3480156103d257600080fd5b5060015460ff16610245565b3480156103ea57600080fd5b5061029e60055481565b610223610a22565b34801561040857600080fd5b506104307f000000000000000000000000000000000000000000000000000000000000000081565b6040516001600160a01b039091168152602001610251565b34801561045457600080fd5b50610223610463366004611aca565b610ac2565b610223610476366004611b64565b610b47565b34801561048757600080fd5b50610223610496366004611b64565b610bf0565b3480156104a757600080fd5b506102456104b636600461198b565b610c31565b3480156104c757600080fd5b5061029e60045481565b3480156104dd57600080fd5b5061029e600081565b6102236104f4366004611b64565b610c5a565b34801561050557600080fd5b5061022361051436600461198b565b610c63565b34801561052557600080fd5b5061022361053436600461195b565b610d05565b34801561054557600080fd5b5061029e7f6018e1702a3123d04beb23a17c959ee998830f34f27bcf3823bfbecf0779f4ea81565b34801561057957600080fd5b5061029e60085481565b34801561058f57600080fd5b50610223610d23565b3480156105a457600080fd5b5061029e60095481565b3480156105ba57600080fd5b506102236105c936600461198b565b610d61565b3480156105da57600080fd5b5061029e610d6c565b610223610d8a565b3480156105f757600080fd5b5061022361060636600461198b565b610d93565b34801561061757600080fd5b5061029e60065481565b34801561062d57600080fd5b5061029e600a5481565b34801561064357600080fd5b50600b546102459060ff1681565b34801561065d57600080fd5b5061022361066c36600461195b565b610dba565b34801561067d57600080fd5b5061029e60075481565b60006001600160e01b03198216637965db0b60e01b14806106b857506301ffc9a760e01b6001600160e01b03198316145b92915050565b600380546106cb90611b7f565b80601f01602080910402602001604051908101604052809291908181526020018280546106f790611b7f565b80156107445780601f1061071957610100808354040283529160200191610744565b820191906000526020600020905b81548152906001019060200180831161072757829003601f168201915b505050505081565b600080516020611ed383398151915261076481610df7565b3360008390036107745760095492505b6009548311156107975760405163fd7850ad60e01b815260040160405180910390fd5b826009546107a59190611bcf565b6009556107b28184610e01565b505050565b6107c2813333610f1a565b50565b600080516020611ed38339815191526107dd81610df7565b50600b805460ff19811660ff90911615179055565b60008281526020819052604090206001015461080d81610df7565b6107b28383610fd0565b6001600160a01b038116331461088c5760405162461bcd60e51b815260206004820152602f60248201527f416363657373436f6e74726f6c3a2063616e206f6e6c792072656e6f756e636560448201526e103937b632b9903337b91039b2b63360891b60648201526084015b60405180910390fd5b6108968282611054565b5050565b7f6018e1702a3123d04beb23a17c959ee998830f34f27bcf3823bfbecf0779f4ea6108c481610df7565b610896826110b9565b600080516020611ed38339815191526108e581610df7565b6007548211156109085760405163fd7850ad60e01b815260040160405180910390fd5b604051632770a7eb60e21b81526001600160a01b037f000000000000000000000000000000000000000000000000000000000000000081166004830152602482018490527f00000000000000000000000000000000000000000000000000000000000000001690639dc29fac90604401600060405180830381600087803b15801561099257600080fd5b505af11580156109a6573d6000803e3d6000fd5b505050505050565b6000806007546109bc610d6c565b6109c69190611bcf565b90506000600654600454670de0b6b3a76400006109e39190611be2565b6109ed9190611bf9565b6109ff90670de0b6b3a7640000611bcf565b610a1183670de0b6b3a7640000611be2565b610a1b9190611bf9565b9392505050565b7f00000000000000000000000000000000000000000000000000000000000000006001600160a01b0316636e553f65610a5a30611100565b6040516001600160e01b031960e084901b16815260048101919091523360248201526044016020604051808303816000875af1158015610a9e573d6000803e3d6000fd5b505050506040513d601f19601f820116820180604052508101906107c29190611c1b565b7f6018e1702a3123d04beb23a17c959ee998830f34f27bcf3823bfbecf0779f4ea610aec81610df7565b610aff866801bc16d674ec800000611be2565b471015610b1f5760405163fd7850ad60e01b815260040160405180910390fd5b610b2d8787878787876111b0565b600854610b3b908790611c34565b60085550505050505050565b7f00000000000000000000000000000000000000000000000000000000000000006001600160a01b0316636e553f65610b7f30611100565b6040516001600160e01b031960e084901b16815260048101919091526001600160a01b03841660248201526044016020604051808303816000875af1158015610bcc573d6000803e3d6000fd5b505050506040513d601f19601f820116820180604052508101906108969190611c1b565b600080516020611ed3833981519152610c0881610df7565b50600b80546001600160a01b0390921661010002610100600160a81b0319909216919091179055565b6000918252602082815260408084206001600160a01b0393909316845291905290205460ff1690565b61089681611100565b604051635d043b2960e11b815260048101839052306024820152336044820152610896907f00000000000000000000000000000000000000000000000000000000000000006001600160a01b03169063ba087652906064016020604051808303816000875af1158015610cda573d6000803e3d6000fd5b505050506040513d601f19601f82011682018060405250810190610cfe9190611c1b565b3083610f1a565b600080516020611ed3833981519152610d1d81610df7565b50600755565b600080516020611ed3833981519152610d3b81610df7565b6000610d4960015460ff1690565b90508015610d5957610896611351565b6108966113a3565b610896823383610f1a565b60006005546801bc16d674ec800000610d859190611be2565b905090565b6107c233611100565b600082815260208190526040902060010154610dae81610df7565b6107b28383611054565b565b600080516020611ed3833981519152610dd281610df7565b8115610dde5750600555565b6040516313f8a3a760e31b815260040160405180910390fd5b6107c281336113de565b80471015610e515760405162461bcd60e51b815260206004820152601d60248201527f416464726573733a20696e73756666696369656e742062616c616e63650000006044820152606401610883565b6000826001600160a01b03168260405160006040518083038185875af1925050503d8060008114610e9e576040519150601f19603f3d011682016040523d82523d6000602084013e610ea3565b606091505b50509050806107b25760405162461bcd60e51b815260206004820152603a60248201527f416464726573733a20756e61626c6520746f2073656e642076616c75652c207260448201527f6563697069656e74206d617920686176652072657665727465640000000000006064820152608401610883565b610f22611437565b610f2a61148e565b604051632770a7eb60e21b81526001600160a01b038381166004830152602482018590527f00000000000000000000000000000000000000000000000000000000000000001690639dc29fac90604401600060405180830381600087803b158015610f9457600080fd5b505af1158015610fa8573d6000803e3d6000fd5b505050506000610fb7846114d4565b905081610fc48183610e01565b50506107b26001600255565b610fda8282610c31565b610896576000828152602081815260408083206001600160a01b03851684529091529020805460ff191660011790556110103390565b6001600160a01b0316816001600160a01b0316837f2f8788117e7eff1d82e926ec794901d17c78024a50270940304540a733656f0d60405160405180910390a45050565b61105e8282610c31565b15610896576000828152602081815260408083206001600160a01b0385168085529252808320805460ff1916905551339285917ff6391f5c32d9c69d2a47ea670b442974b53935d1edc7fd64eb21e047a839171b9190a45050565b60036110c58282611c8d565b507f8ba040512c1273086ac3dc9e59c32b9fc104064d6df4c3747fec10e029bc3fba816040516110f59190611948565b60405180910390a150565b600061110a611437565b61111261148e565b61111a6115e1565b6040516340c10f1960e01b81526001600160a01b038481166004830152602482018390529192507f0000000000000000000000000000000000000000000000000000000000000000909116906340c10f1990604401600060405180830381600087803b15801561118957600080fd5b505af115801561119d573d6000803e3d6000fd5b505050506111ab6001600255565b919050565b6003805486916801bc16d674ec80000091600091906111ce90611b7f565b80601f01602080910402602001604051908101604052809291908181526020018280546111fa90611b7f565b80156112475780601f1061121c57610100808354040283529160200191611247565b820191906000526020600020905b81548152906001019060200180831161122a57829003601f168201915b505050505090505b821561134657600019909201916001600160a01b037f0000000000000000000000000000000000000000000000000000000000000000166322895118838b8b8781811061129e5761129e611d4d565b90506020028101906112b09190611d63565b858c8c8a8181106112c3576112c3611d4d565b90506020028101906112d59190611d63565b8c8c8c8181106112e7576112e7611d4d565b905060200201356040518863ffffffff1660e01b815260040161130f96959493929190611dd3565b6000604051808303818588803b15801561132857600080fd5b505af115801561133c573d6000803e3d6000fd5b505050505061124f565b505050505050505050565b6113596116d7565b6001805460ff191690557f5db9ee0a495bf2e6ff9c91a7834c1ba4fdd244a5e8aa4e537bd38aeae4b073aa335b6040516001600160a01b03909116815260200160405180910390a1565b6113ab61148e565b6001805460ff1916811790557f62e78cea01bee320cd4e420270b5ea74000d11b0c9f74754ebdbfc544b05a25833611386565b6113e88282610c31565b610896576113f581611720565b611400836020611732565b604051602001611411929190611e22565b60408051601f198184030181529082905262461bcd60e51b825261088391600401611948565b60028054036114885760405162461bcd60e51b815260206004820152601f60248201527f5265656e7472616e637947756172643a207265656e7472616e742063616c6c006044820152606401610883565b60028055565b60015460ff1615610db85760405162461bcd60e51b815260206004820152601060248201526f14185d5cd8589b194e881c185d5cd95960821b6044820152606401610883565b600b54600090819061010090046001600160a01b03161561159c57600b5460405162f20ddd60e11b8152600481018590523360248201526101009091046001600160a01b0316906301e41bba906044016040805180830381865afa158015611540573d6000803e3d6000fd5b505050506040513d601f19601f820116820180604052508101906115649190611e97565b600b54919450915060ff161561158a57806009546115829190611bcf565b60095561159c565b806009546115989190611c34565b6009555b6009546115a99084611c34565b4710156115c95760405163fd7850ad60e01b815260040160405180910390fd5b826007546115d79190611bcf565b6007555090919050565b600b54349060009061010090046001600160a01b03161561168957600b54604051631d9a1b7b60e11b8152600481018490523360248201526101009091046001600160a01b031690633b3436f6906044016040805180830381865afa15801561164e573d6000803e3d6000fd5b505050506040513d601f19601f820116820180604052508101906116729190611e97565b6009549193509150611685908290611c34565b6009555b6000826007546116999190611c34565b90506116a3610d6c565b600a546116b09190611c34565b8111156116d05760405163fd7850ad60e01b815260040160405180910390fd5b6007555090565b60015460ff16610db85760405162461bcd60e51b815260206004820152601460248201527314185d5cd8589b194e881b9bdd081c185d5cd95960621b6044820152606401610883565b60606106b86001600160a01b03831660145b60606000611741836002611be2565b61174c906002611c34565b67ffffffffffffffff811115611764576117646119b7565b6040519080825280601f01601f19166020018201604052801561178e576020820181803683370190505b509050600360fc1b816000815181106117a9576117a9611d4d565b60200101906001600160f81b031916908160001a905350600f60fb1b816001815181106117d8576117d8611d4d565b60200101906001600160f81b031916908160001a90535060006117fc846002611be2565b611807906001611c34565b90505b600181111561187f576f181899199a1a9b1b9c1cb0b131b232b360811b85600f166010811061183b5761183b611d4d565b1a60f81b82828151811061185157611851611d4d565b60200101906001600160f81b031916908160001a90535060049490941c9361187881611ebb565b905061180a565b508315610a1b5760405162461bcd60e51b815260206004820181905260248201527f537472696e67733a20686578206c656e67746820696e73756666696369656e746044820152606401610883565b6000602082840312156118e057600080fd5b81356001600160e01b031981168114610a1b57600080fd5b60005b838110156119135781810151838201526020016118fb565b50506000910152565b600081518084526119348160208601602086016118f8565b601f01601f19169290920160200192915050565b602081526000610a1b602083018461191c565b60006020828403121561196d57600080fd5b5035919050565b80356001600160a01b03811681146111ab57600080fd5b6000806040838503121561199e57600080fd5b823591506119ae60208401611974565b90509250929050565b634e487b7160e01b600052604160045260246000fd5b6000602082840312156119df57600080fd5b813567ffffffffffffffff808211156119f757600080fd5b818401915084601f830112611a0b57600080fd5b813581811115611a1d57611a1d6119b7565b604051601f8201601f19908116603f01168101908382118183101715611a4557611a456119b7565b81604052828152876020848701011115611a5e57600080fd5b826020860160208301376000928101602001929092525095945050505050565b60008083601f840112611a9057600080fd5b50813567ffffffffffffffff811115611aa857600080fd5b6020830191508360208260051b8501011115611ac357600080fd5b9250929050565b60008060008060008060608789031215611ae357600080fd5b863567ffffffffffffffff80821115611afb57600080fd5b611b078a838b01611a7e565b90985096506020890135915080821115611b2057600080fd5b611b2c8a838b01611a7e565b90965094506040890135915080821115611b4557600080fd5b50611b5289828a01611a7e565b979a9699509497509295939492505050565b600060208284031215611b7657600080fd5b610a1b82611974565b600181811c90821680611b9357607f821691505b602082108103611bb357634e487b7160e01b600052602260045260246000fd5b50919050565b634e487b7160e01b600052601160045260246000fd5b818103818111156106b8576106b8611bb9565b80820281158282048414176106b8576106b8611bb9565b600082611c1657634e487b7160e01b600052601260045260246000fd5b500490565b600060208284031215611c2d57600080fd5b5051919050565b808201808211156106b8576106b8611bb9565b601f8211156107b257600081815260208120601f850160051c81016020861015611c6e5750805b601f850160051c820191505b818110156109a657828155600101611c7a565b815167ffffffffffffffff811115611ca757611ca76119b7565b611cbb81611cb58454611b7f565b84611c47565b602080601f831160018114611cf05760008415611cd85750858301515b600019600386901b1c1916600185901b1785556109a6565b600085815260208120601f198616915b82811015611d1f57888601518255948401946001909101908401611d00565b5085821015611d3d5787850151600019600388901b60f8161c191681555b5050505050600190811b01905550565b634e487b7160e01b600052603260045260246000fd5b6000808335601e19843603018112611d7a57600080fd5b83018035915067ffffffffffffffff821115611d9557600080fd5b602001915036819003821315611ac357600080fd5b81835281816020850137506000828201602090810191909152601f909101601f19169091010190565b608081526000611de760808301888a611daa565b8281036020840152611df9818861191c565b90508281036040840152611e0e818688611daa565b915050826060830152979650505050505050565b7f416363657373436f6e74726f6c3a206163636f756e7420000000000000000000815260008351611e5a8160178501602088016118f8565b7001034b99036b4b9b9b4b733903937b6329607d1b6017918401918201528351611e8b8160288401602088016118f8565b01602801949350505050565b60008060408385031215611eaa57600080fd5b505080516020909101519092909150565b600081611eca57611eca611bb9565b50600019019056fe8eeeb5290718f324aa0965d35cf24b6163c00698ab277824ce00bdf229264ecfa264697066735822122023c5f342fde36aaa48be5d55354ffdd91b350b804eea1d5c2a191d6b212b613064736f6c63430008140033",
  "devdoc": {
    "author": "ChimeraDefi - chimera_defi@protonmail.com | sharedstake.org",
    "details": "Deployment params:  - addresses : [feeCalc, sgeth, wsgeth, gov]",
    "events": {
      "Paused(address)": {
        "details": "Emitted when the pause is triggered by `account`."
      },
      "RoleAdminChanged(bytes32,bytes32,bytes32)": {
        "details": "Emitted when `newAdminRole` is set as ``role``'s admin role, replacing `previousAdminRole` `DEFAULT_ADMIN_ROLE` is the starting admin for all roles, despite {RoleAdminChanged} not being emitted signaling this. _Available since v3.1._"
      },
      "RoleGranted(bytes32,address,address)": {
        "details": "Emitted when `account` is granted `role`. `sender` is the account that originated the contract call, an admin role bearer except when using {AccessControl-_setupRole}."
      },
      "RoleRevoked(bytes32,address,address)": {
        "details": "Emitted when `account` is revoked `role`. `sender` is the account that originated the contract call:   - if using `revokeRole`, it is the admin role bearer   - if using `renounceRole`, it is the role bearer (i.e. `account`)"
      },
      "Unpaused(address)": {
        "details": "Emitted when the pause is lifted by `account`."
      }
    },
    "kind": "dev",
    "methods": {
      "getRoleAdmin(bytes32)": {
        "details": "Returns the admin role that controls `role`. See {grantRole} and {revokeRole}. To change a role's admin, use {_setRoleAdmin}."
      },
      "grantRole(bytes32,address)": {
        "details": "Grants `role` to `account`. If `account` had not been already granted `role`, emits a {RoleGranted} event. Requirements: - the caller must have ``role``'s admin role. May emit a {RoleGranted} event."
      },
      "hasRole(bytes32,address)": {
        "details": "Returns `true` if `account` has been granted `role`."
      },
      "paused()": {
        "details": "Returns true if the contract is paused, and false otherwise."
      },
      "renounceRole(bytes32,address)": {
        "details": "Revokes `role` from the calling account. Roles are often managed via {grantRole} and {revokeRole}: this function's purpose is to provide a mechanism for accounts to lose their privileges if they are compromised (such as when a trusted device is misplaced). If the calling account had been revoked `role`, emits a {RoleRevoked} event. Requirements: - the caller must be `account`. May emit a {RoleRevoked} event."
      },
      "revokeRole(bytes32,address)": {
        "details": "Revokes `role` from `account`. If `account` had been granted `role`, emits a {RoleRevoked} event. Requirements: - the caller must have ``role``'s admin role. May emit a {RoleRevoked} event."
      },
      "supportsInterface(bytes4)": {
        "details": "See {IERC165-supportsInterface}."
      }
    },
    "title": "SharedDepositMinterV2",
    "version": 1
  },
  "userdoc": {
    "kind": "user",
    "methods": {},
    "notice": "Mints LSD tokens for ETH deposited to the contract. Handles the depositing of ETH to the ETH2 deposit contract and validator creation",
    "version": 1
  },
  "storageLayout": {
    "storage": [
      {
        "astId": 3628,
        "contract": "contracts/v2/core/SharedDepositMinterV2.sol:SharedDepositMinterV2",
        "label": "_roles",
        "offset": 0,
        "slot": "0",
        "type": "t_mapping(t_bytes32,t_struct(RoleData)3623_storage)"
      },
      {
        "astId": 4673,
        "contract": "contracts/v2/core/SharedDepositMinterV2.sol:SharedDepositMinterV2",
        "label": "_paused",
        "offset": 0,
        "slot": "1",
        "type": "t_bool"
      },
      {
        "astId": 4774,
        "contract": "contracts/v2/core/SharedDepositMinterV2.sol:SharedDepositMinterV2",
        "label": "_status",
        "offset": 0,
        "slot": "2",
        "type": "t_uint256"
      },
      {
        "astId": 16740,
        "contract": "contracts/v2/core/SharedDepositMinterV2.sol:SharedDepositMinterV2",
        "label": "withdrawalPubKey",
        "offset": 0,
        "slot": "3",
        "type": "t_bytes_storage"
      },
      {
        "astId": 14920,
        "contract": "contracts/v2/core/SharedDepositMinterV2.sol:SharedDepositMinterV2",
        "label": "adminFee",
        "offset": 0,
        "slot": "4",
        "type": "t_uint256"
      },
      {
        "astId": 14922,
        "contract": "contracts/v2/core/SharedDepositMinterV2.sol:SharedDepositMinterV2",
        "label": "numValidators",
        "offset": 0,
        "slot": "5",
        "type": "t_uint256"
      },
      {
        "astId": 14924,
        "contract": "contracts/v2/core/SharedDepositMinterV2.sol:SharedDepositMinterV2",
        "label": "costPerValidator",
        "offset": 0,
        "slot": "6",
        "type": "t_uint256"
      },
      {
        "astId": 14926,
        "contract": "contracts/v2/core/SharedDepositMinterV2.sol:SharedDepositMinterV2",
        "label": "curValidatorShares",
        "offset": 0,
        "slot": "7",
        "type": "t_uint256"
      },
      {
        "astId": 14928,
        "contract": "contracts/v2/core/SharedDepositMinterV2.sol:SharedDepositMinterV2",
        "label": "validatorsCreated",
        "offset": 0,
        "slot": "8",
        "type": "t_uint256"
      },
      {
        "astId": 14930,
        "contract": "contracts/v2/core/SharedDepositMinterV2.sol:SharedDepositMinterV2",
        "label": "adminFeeTotal",
        "offset": 0,
        "slot": "9",
        "type": "t_uint256"
      },
      {
        "astId": 14932,
        "contract": "contracts/v2/core/SharedDepositMinterV2.sol:SharedDepositMinterV2",
        "label": "buffer",
        "offset": 0,
        "slot": "10",
        "type": "t_uint256"
      },
      {
        "astId": 14934,
        "contract": "contracts/v2/core/SharedDepositMinterV2.sol:SharedDepositMinterV2",
        "label": "refundFeesOnWithdraw",
        "offset": 0,
        "slot": "11",
        "type": "t_bool"
      },
      {
        "astId": 14943,
        "contract": "contracts/v2/core/SharedDepositMinterV2.sol:SharedDepositMinterV2",
        "label": "_feeCalc",
        "offset": 1,
        "slot": "11",
        "type": "t_contract(IFeeCalc)16516"
      }
    ],
    "types": {
      "t_address": {
        "encoding": "inplace",
        "label": "address",
        "numberOfBytes": "20"
      },
      "t_bool": {
        "encoding": "inplace",
        "label": "bool",
        "numberOfBytes": "1"
      },
      "t_bytes32": {
        "encoding": "inplace",
        "label": "bytes32",
        "numberOfBytes": "32"
      },
      "t_bytes_storage": {
        "encoding": "bytes",
        "label": "bytes",
        "numberOfBytes": "32"
      },
      "t_contract(IFeeCalc)16516": {
        "encoding": "inplace",
        "label": "contract IFeeCalc",
        "numberOfBytes": "20"
      },
      "t_mapping(t_address,t_bool)": {
        "encoding": "mapping",
        "key": "t_address",
        "label": "mapping(address => bool)",
        "numberOfBytes": "32",
        "value": "t_bool"
      },
      "t_mapping(t_bytes32,t_struct(RoleData)3623_storage)": {
        "encoding": "mapping",
        "key": "t_bytes32",
        "label": "mapping(bytes32 => struct AccessControl.RoleData)",
        "numberOfBytes": "32",
        "value": "t_struct(RoleData)3623_storage"
      },
      "t_struct(RoleData)3623_storage": {
        "encoding": "inplace",
        "label": "struct AccessControl.RoleData",
        "members": [
          {
            "astId": 3620,
            "contract": "contracts/v2/core/SharedDepositMinterV2.sol:SharedDepositMinterV2",
            "label": "members",
            "offset": 0,
            "slot": "0",
            "type": "t_mapping(t_address,t_bool)"
          },
          {
            "astId": 3622,
            "contract": "contracts/v2/core/SharedDepositMinterV2.sol:SharedDepositMinterV2",
            "label": "adminRole",
            "offset": 0,
            "slot": "1",
            "type": "t_bytes32"
          }
        ],
        "numberOfBytes": "64"
      },
      "t_uint256": {
        "encoding": "inplace",
        "label": "uint256",
        "numberOfBytes": "32"
      }
    }
  }
}