{
  "address": "0x06d889F4678058D95058Ef431035b2f5d4A27B1a",
  "abi": [
    {
      "inputs": [
        {
          "internalType": "contract ERC20",
          "name": "_underlying",
          "type": "address"
        },
        {
          "internalType": "uint32",
          "name": "_rewardsCycleLength",
          "type": "uint32"
        }
      ],
      "stateMutability": "nonpayable",
      "type": "constructor"
    },
    {
      "inputs": [],
      "name": "SyncError",
      "type": "error"
    },
    {
      "anonymous": false,
      "inputs": [
        {
          "indexed": true,
          "internalType": "address",
          "name": "owner",
          "type": "address"
        },
        {
          "indexed": true,
          "internalType": "address",
          "name": "spender",
          "type": "address"
        },
        {
          "indexed": false,
          "internalType": "uint256",
          "name": "amount",
          "type": "uint256"
        }
      ],
      "name": "Approval",
      "type": "event"
    },
    {
      "anonymous": false,
      "inputs": [
        {
          "indexed": true,
          "internalType": "address",
          "name": "caller",
          "type": "address"
        },
        {
          "indexed": true,
          "internalType": "address",
          "name": "owner",
          "type": "address"
        },
        {
          "indexed": false,
          "internalType": "uint256",
          "name": "assets",
          "type": "uint256"
        },
        {
          "indexed": false,
          "internalType": "uint256",
          "name": "shares",
          "type": "uint256"
        }
      ],
      "name": "Deposit",
      "type": "event"
    },
    {
      "anonymous": false,
      "inputs": [
        {
          "indexed": true,
          "internalType": "uint32",
          "name": "cycleEnd",
          "type": "uint32"
        },
        {
          "indexed": false,
          "internalType": "uint256",
          "name": "rewardAmount",
          "type": "uint256"
        }
      ],
      "name": "NewRewardsCycle",
      "type": "event"
    },
    {
      "anonymous": false,
      "inputs": [
        {
          "indexed": true,
          "internalType": "address",
          "name": "from",
          "type": "address"
        },
        {
          "indexed": true,
          "internalType": "address",
          "name": "to",
          "type": "address"
        },
        {
          "indexed": false,
          "internalType": "uint256",
          "name": "amount",
          "type": "uint256"
        }
      ],
      "name": "Transfer",
      "type": "event"
    },
    {
      "anonymous": false,
      "inputs": [
        {
          "indexed": true,
          "internalType": "address",
          "name": "caller",
          "type": "address"
        },
        {
          "indexed": true,
          "internalType": "address",
          "name": "receiver",
          "type": "address"
        },
        {
          "indexed": true,
          "internalType": "address",
          "name": "owner",
          "type": "address"
        },
        {
          "indexed": false,
          "internalType": "uint256",
          "name": "assets",
          "type": "uint256"
        },
        {
          "indexed": false,
          "internalType": "uint256",
          "name": "shares",
          "type": "uint256"
        }
      ],
      "name": "Withdraw",
      "type": "event"
    },
    {
      "inputs": [],
      "name": "DOMAIN_SEPARATOR",
      "outputs": [
        {
          "internalType": "bytes32",
          "name": "",
          "type": "bytes32"
        }
      ],
      "stateMutability": "view",
      "type": "function"
    },
    {
      "inputs": [
        {
          "internalType": "address",
          "name": "",
          "type": "address"
        },
        {
          "internalType": "address",
          "name": "",
          "type": "address"
        }
      ],
      "name": "allowance",
      "outputs": [
        {
          "internalType": "uint256",
          "name": "",
          "type": "uint256"
        }
      ],
      "stateMutability": "view",
      "type": "function"
    },
    {
      "inputs": [
        {
          "internalType": "address",
          "name": "spender",
          "type": "address"
        },
        {
          "internalType": "uint256",
          "name": "amount",
          "type": "uint256"
        }
      ],
      "name": "approve",
      "outputs": [
        {
          "internalType": "bool",
          "name": "",
          "type": "bool"
        }
      ],
      "stateMutability": "nonpayable",
      "type": "function"
    },
    {
      "inputs": [],
      "name": "asset",
      "outputs": [
        {
          "internalType": "contract ERC20",
          "name": "",
          "type": "address"
        }
      ],
      "stateMutability": "view",
      "type": "function"
    },
    {
      "inputs": [
        {
          "internalType": "address",
          "name": "",
          "type": "address"
        }
      ],
      "name": "balanceOf",
      "outputs": [
        {
          "internalType": "uint256",
          "name": "",
          "type": "uint256"
        }
      ],
      "stateMutability": "view",
      "type": "function"
    },
    {
      "inputs": [
        {
          "internalType": "uint256",
          "name": "shares",
          "type": "uint256"
        }
      ],
      "name": "convertToAssets",
      "outputs": [
        {
          "internalType": "uint256",
          "name": "",
          "type": "uint256"
        }
      ],
      "stateMutability": "view",
      "type": "function"
    },
    {
      "inputs": [
        {
          "internalType": "uint256",
          "name": "assets",
          "type": "uint256"
        }
      ],
      "name": "convertToShares",
      "outputs": [
        {
          "internalType": "uint256",
          "name": "",
          "type": "uint256"
        }
      ],
      "stateMutability": "view",
      "type": "function"
    },
    {
      "inputs": [],
      "name": "decimals",
      "outputs": [
        {
          "internalType": "uint8",
          "name": "",
          "type": "uint8"
        }
      ],
      "stateMutability": "view",
      "type": "function"
    },
    {
      "inputs": [
        {
          "internalType": "uint256",
          "name": "assets",
          "type": "uint256"
        },
        {
          "internalType": "address",
          "name": "receiver",
          "type": "address"
        }
      ],
      "name": "deposit",
      "outputs": [
        {
          "internalType": "uint256",
          "name": "shares",
          "type": "uint256"
        }
      ],
      "stateMutability": "nonpayable",
      "type": "function"
    },
    {
      "inputs": [
        {
          "internalType": "uint256",
          "name": "assets",
          "type": "uint256"
        },
        {
          "internalType": "address",
          "name": "receiver",
          "type": "address"
        },
        {
          "internalType": "uint256",
          "name": "deadline",
          "type": "uint256"
        },
        {
          "internalType": "bool",
          "name": "approveMax",
          "type": "bool"
        },
        {
          "internalType": "uint8",
          "name": "v",
          "type": "uint8"
        },
        {
          "internalType": "bytes32",
          "name": "r",
          "type": "bytes32"
        },
        {
          "internalType": "bytes32",
          "name": "s",
          "type": "bytes32"
        }
      ],
      "name": "depositWithSignature",
      "outputs": [
        {
          "internalType": "uint256",
          "name": "shares",
          "type": "uint256"
        }
      ],
      "stateMutability": "nonpayable",
      "type": "function"
    },
    {
      "inputs": [],
      "name": "lastRewardAmount",
      "outputs": [
        {
          "internalType": "uint192",
          "name": "",
          "type": "uint192"
        }
      ],
      "stateMutability": "view",
      "type": "function"
    },
    {
      "inputs": [],
      "name": "lastSync",
      "outputs": [
        {
          "internalType": "uint32",
          "name": "",
          "type": "uint32"
        }
      ],
      "stateMutability": "view",
      "type": "function"
    },
    {
      "inputs": [
        {
          "internalType": "address",
          "name": "",
          "type": "address"
        }
      ],
      "name": "maxDeposit",
      "outputs": [
        {
          "internalType": "uint256",
          "name": "",
          "type": "uint256"
        }
      ],
      "stateMutability": "view",
      "type": "function"
    },
    {
      "inputs": [
        {
          "internalType": "address",
          "name": "",
          "type": "address"
        }
      ],
      "name": "maxMint",
      "outputs": [
        {
          "internalType": "uint256",
          "name": "",
          "type": "uint256"
        }
      ],
      "stateMutability": "view",
      "type": "function"
    },
    {
      "inputs": [
        {
          "internalType": "address",
          "name": "owner",
          "type": "address"
        }
      ],
      "name": "maxRedeem",
      "outputs": [
        {
          "internalType": "uint256",
          "name": "",
          "type": "uint256"
        }
      ],
      "stateMutability": "view",
      "type": "function"
    },
    {
      "inputs": [
        {
          "internalType": "address",
          "name": "owner",
          "type": "address"
        }
      ],
      "name": "maxWithdraw",
      "outputs": [
        {
          "internalType": "uint256",
          "name": "",
          "type": "uint256"
        }
      ],
      "stateMutability": "view",
      "type": "function"
    },
    {
      "inputs": [
        {
          "internalType": "uint256",
          "name": "shares",
          "type": "uint256"
        },
        {
          "internalType": "address",
          "name": "receiver",
          "type": "address"
        }
      ],
      "name": "mint",
      "outputs": [
        {
          "internalType": "uint256",
          "name": "assets",
          "type": "uint256"
        }
      ],
      "stateMutability": "nonpayable",
      "type": "function"
    },
    {
      "inputs": [],
      "name": "name",
      "outputs": [
        {
          "internalType": "string",
          "name": "",
          "type": "string"
        }
      ],
      "stateMutability": "view",
      "type": "function"
    },
    {
      "inputs": [
        {
          "internalType": "address",
          "name": "",
          "type": "address"
        }
      ],
      "name": "nonces",
      "outputs": [
        {
          "internalType": "uint256",
          "name": "",
          "type": "uint256"
        }
      ],
      "stateMutability": "view",
      "type": "function"
    },
    {
      "inputs": [
        {
          "internalType": "address",
          "name": "owner",
          "type": "address"
        },
        {
          "internalType": "address",
          "name": "spender",
          "type": "address"
        },
        {
          "internalType": "uint256",
          "name": "value",
          "type": "uint256"
        },
        {
          "internalType": "uint256",
          "name": "deadline",
          "type": "uint256"
        },
        {
          "internalType": "uint8",
          "name": "v",
          "type": "uint8"
        },
        {
          "internalType": "bytes32",
          "name": "r",
          "type": "bytes32"
        },
        {
          "internalType": "bytes32",
          "name": "s",
          "type": "bytes32"
        }
      ],
      "name": "permit",
      "outputs": [],
      "stateMutability": "nonpayable",
      "type": "function"
    },
    {
      "inputs": [
        {
          "internalType": "uint256",
          "name": "assets",
          "type": "uint256"
        }
      ],
      "name": "previewDeposit",
      "outputs": [
        {
          "internalType": "uint256",
          "name": "",
          "type": "uint256"
        }
      ],
      "stateMutability": "view",
      "type": "function"
    },
    {
      "inputs": [
        {
          "internalType": "uint256",
          "name": "shares",
          "type": "uint256"
        }
      ],
      "name": "previewMint",
      "outputs": [
        {
          "internalType": "uint256",
          "name": "",
          "type": "uint256"
        }
      ],
      "stateMutability": "view",
      "type": "function"
    },
    {
      "inputs": [
        {
          "internalType": "uint256",
          "name": "shares",
          "type": "uint256"
        }
      ],
      "name": "previewRedeem",
      "outputs": [
        {
          "internalType": "uint256",
          "name": "",
          "type": "uint256"
        }
      ],
      "stateMutability": "view",
      "type": "function"
    },
    {
      "inputs": [
        {
          "internalType": "uint256",
          "name": "assets",
          "type": "uint256"
        }
      ],
      "name": "previewWithdraw",
      "outputs": [
        {
          "internalType": "uint256",
          "name": "",
          "type": "uint256"
        }
      ],
      "stateMutability": "view",
      "type": "function"
    },
    {
      "inputs": [],
      "name": "pricePerShare",
      "outputs": [
        {
          "internalType": "uint256",
          "name": "",
          "type": "uint256"
        }
      ],
      "stateMutability": "view",
      "type": "function"
    },
    {
      "inputs": [
        {
          "internalType": "uint256",
          "name": "shares",
          "type": "uint256"
        },
        {
          "internalType": "address",
          "name": "receiver",
          "type": "address"
        },
        {
          "internalType": "address",
          "name": "owner",
          "type": "address"
        }
      ],
      "name": "redeem",
      "outputs": [
        {
          "internalType": "uint256",
          "name": "assets",
          "type": "uint256"
        }
      ],
      "stateMutability": "nonpayable",
      "type": "function"
    },
    {
      "inputs": [],
      "name": "rewardsCycleEnd",
      "outputs": [
        {
          "internalType": "uint32",
          "name": "",
          "type": "uint32"
        }
      ],
      "stateMutability": "view",
      "type": "function"
    },
    {
      "inputs": [],
      "name": "rewardsCycleLength",
      "outputs": [
        {
          "internalType": "uint32",
          "name": "",
          "type": "uint32"
        }
      ],
      "stateMutability": "view",
      "type": "function"
    },
    {
      "inputs": [],
      "name": "symbol",
      "outputs": [
        {
          "internalType": "string",
          "name": "",
          "type": "string"
        }
      ],
      "stateMutability": "view",
      "type": "function"
    },
    {
      "inputs": [],
      "name": "syncRewards",
      "outputs": [],
      "stateMutability": "nonpayable",
      "type": "function"
    },
    {
      "inputs": [],
      "name": "totalAssets",
      "outputs": [
        {
          "internalType": "uint256",
          "name": "",
          "type": "uint256"
        }
      ],
      "stateMutability": "view",
      "type": "function"
    },
    {
      "inputs": [],
      "name": "totalSupply",
      "outputs": [
        {
          "internalType": "uint256",
          "name": "",
          "type": "uint256"
        }
      ],
      "stateMutability": "view",
      "type": "function"
    },
    {
      "inputs": [
        {
          "internalType": "address",
          "name": "to",
          "type": "address"
        },
        {
          "internalType": "uint256",
          "name": "amount",
          "type": "uint256"
        }
      ],
      "name": "transfer",
      "outputs": [
        {
          "internalType": "bool",
          "name": "",
          "type": "bool"
        }
      ],
      "stateMutability": "nonpayable",
      "type": "function"
    },
    {
      "inputs": [
        {
          "internalType": "address",
          "name": "from",
          "type": "address"
        },
        {
          "internalType": "address",
          "name": "to",
          "type": "address"
        },
        {
          "internalType": "uint256",
          "name": "amount",
          "type": "uint256"
        }
      ],
      "name": "transferFrom",
      "outputs": [
        {
          "internalType": "bool",
          "name": "",
          "type": "bool"
        }
      ],
      "stateMutability": "nonpayable",
      "type": "function"
    },
    {
      "inputs": [
        {
          "internalType": "uint256",
          "name": "assets",
          "type": "uint256"
        },
        {
          "internalType": "address",
          "name": "receiver",
          "type": "address"
        },
        {
          "internalType": "address",
          "name": "owner",
          "type": "address"
        }
      ],
      "name": "withdraw",
      "outputs": [
        {
          "internalType": "uint256",
          "name": "shares",
          "type": "uint256"
        }
      ],
      "stateMutability": "nonpayable",
      "type": "function"
    }
  ],
  "transactionHash": "0xb09ac14e5a5f86fd3c3f08dd032cbeab3f30523112ca9239c9b63b7b1415934a",
  "args": [
    "0x16888a69bDfb3Adcf8CB1F3d24Ac1Ee320e4A7e8",
    86400
  ],
  "numDeployments": 1,
  "solcInputHash": "7444b97d0dac89b4a6ba2e839ed33e0a",
  "bytecode": "0x6101206040523480156200001257600080fd5b506040516200217e3803806200217e833981016040819052620000359162000239565b80826040518060600160405280602281526020016200215c60229139604051806040016040528060068152602001650eee6ce8aa8960d31b8152508181846001600160a01b031663313ce5676040518163ffffffff1660e01b8152600401602060405180830381865afa158015620000b1573d6000803e3d6000fd5b505050506040513d601f19601f82011682018060405250810190620000d791906200028b565b6000620000e584826200035c565b506001620000f483826200035c565b5060ff81166080524660a0526200010a62000185565b60c0525050506001600160a01b0390921660e052505063ffffffff811661010081905280620001394262000221565b62000145919062000428565b6200015191906200045a565b6006805463ffffffff929092166401000000000263ffffffff60201b1990921691909117905550506001600855506200050f565b60007f8b73c3c69bb8fe3d512ecc4cf759cc79239f7b179b0ffacaa9a75d522b39400f6000604051620001b9919062000491565b6040805191829003822060208301939093528101919091527fc89efdaa54c0f20c7adf612882df0950f5a951637e0307cdcb4c672f298b8bc660608201524660808201523060a082015260c00160405160208183030381529060405280519060200120905090565b600064010000000082106200023557600080fd5b5090565b600080604083850312156200024d57600080fd5b82516001600160a01b03811681146200026557600080fd5b602084015190925063ffffffff811681146200028057600080fd5b809150509250929050565b6000602082840312156200029e57600080fd5b815160ff81168114620002b057600080fd5b9392505050565b634e487b7160e01b600052604160045260246000fd5b600181811c90821680620002e257607f821691505b6020821081036200030357634e487b7160e01b600052602260045260246000fd5b50919050565b601f8211156200035757600081815260208120601f850160051c81016020861015620003325750805b601f850160051c820191505b8181101562000353578281556001016200033e565b5050505b505050565b81516001600160401b03811115620003785762000378620002b7565b6200039081620003898454620002cd565b8462000309565b602080601f831160018114620003c85760008415620003af5750858301515b600019600386901b1c1916600185901b17855562000353565b600085815260208120601f198616915b82811015620003f957888601518255948401946001909101908401620003d8565b5085821015620004185787850151600019600388901b60f8161c191681555b5050505050600190811b01905550565b600063ffffffff808416806200044e57634e487b7160e01b600052601260045260246000fd5b92169190910492915050565b63ffffffff8181168382160280821691908281146200048957634e487b7160e01b600052601160045260246000fd5b505092915050565b6000808354620004a181620002cd565b60018281168015620004bc5760018114620004d25762000503565b60ff198416875282151583028701945062000503565b8760005260208060002060005b85811015620004fa5781548a820152908401908201620004df565b50505082870194505b50929695505050505050565b60805160a05160c05160e05161010051611bc96200059360003960008181610390015281816109f801528181610a3f0152610a840152600081816102f10152818161095501528181610b850152818161116f015281816112330152818161139c01526114e80152600061086d01526000610838015260006102b00152611bc96000f3fe608060405234801561001057600080fd5b50600436106102115760003560e01c806375e077c311610125578063bafedcaa116100ad578063d505accf1161007c578063d505accf146104d6578063d905777e146104e9578063dd62ed3e14610512578063e7ff69f11461053d578063ef8b30f71461055457600080fd5b8063bafedcaa1461047e578063c63d75b61461032b578063c6e6f592146104b0578063ce96cb77146104c357600080fd5b806399530b06116100f457806399530b061461042a578063a9059cbb14610432578063b3d7f6b914610445578063b460af9414610458578063ba0876521461046b57600080fd5b806375e077c3146103dc5780637ecebe00146103ef57806394bf804d1461040f57806395d89b411461042257600080fd5b80633644e515116101a85780636917516b116101775780636917516b146103535780636e553f65146103785780636fcf5e5f1461038b57806370a08231146103b257806372c0c211146103d257600080fd5b80633644e515146102e457806338d52e0f146102ec578063402d267d1461032b5780634cdad5061461034057600080fd5b80630a28a477116101e45780630a28a4771461027c57806318160ddd1461028f57806323b872dd14610298578063313ce567146102ab57600080fd5b806301e1d1141461021657806306fdde031461023157806307a2d13a14610246578063095ea7b314610259575b600080fd5b61021e610567565b6040519081526020015b60405180910390f35b61023961060c565b6040516102289190611712565b61021e610254366004611760565b61069a565b61026c610267366004611795565b6106c7565b6040519015158152602001610228565b61021e61028a366004611760565b610734565b61021e60025481565b61026c6102a63660046117bf565b610754565b6102d27f000000000000000000000000000000000000000000000000000000000000000081565b60405160ff9091168152602001610228565b61021e610834565b6103137f000000000000000000000000000000000000000000000000000000000000000081565b6040516001600160a01b039091168152602001610228565b61021e6103393660046117fb565b5060001990565b61021e61034e366004611760565b61088f565b6006546103639063ffffffff1681565b60405163ffffffff9091168152602001610228565b61021e610386366004611816565b61089a565b6103637f000000000000000000000000000000000000000000000000000000000000000081565b61021e6103c03660046117fb565b60036020526000908152604090205481565b6103da6108d8565b005b61021e6103ea366004611853565b610b30565b61021e6103fd3660046117fb565b60056020526000908152604090205481565b61021e61041d366004611816565b610c00565b610239610c32565b61021e610c3f565b61026c610440366004611795565b610c52565b61021e610453366004611760565b610cb8565b61021e6104663660046118c4565b610cd7565b61021e6104793660046118c4565b610d16565b60065461049890600160401b90046001600160c01b031681565b6040516001600160c01b039091168152602001610228565b61021e6104be366004611760565b610d4a565b61021e6104d13660046117fb565b610d6a565b6103da6104e4366004611900565b610d8c565b61021e6104f73660046117fb565b6001600160a01b031660009081526003602052604090205490565b61021e61052036600461194e565b600460209081526000928352604080842090915290825290205481565b60065461036390600160201b900463ffffffff1681565b61021e610562366004611760565b610fd5565b600754600654600091906001600160c01b03600160401b8204169063ffffffff600160201b8204811691164282116105b5576105ac6001600160c01b0384168561198e565b94505050505090565b60006105c182846119a1565b63ffffffff168263ffffffff16426105d991906119c5565b6105ec906001600160c01b0387166119d8565b6105f69190611a05565b9050610602818661198e565b9550505050505090565b6000805461061990611a19565b80601f016020809104026020016040519081016040528092919081815260200182805461064590611a19565b80156106925780601f1061066757610100808354040283529160200191610692565b820191906000526020600020905b81548152906001019060200180831161067557829003601f168201915b505050505081565b60025460009080156106be576106b96106b1610567565b849083610fe0565b6106c0565b825b9392505050565b3360008181526004602090815260408083206001600160a01b038716808552925280832085905551919290917f8c5be1e5ebec7d5bd14f71427d1e84f3dd0314c0f7b2291e5b200ac8c7c3b925906107229086815260200190565b60405180910390a35060015b92915050565b60025460009080156106be576106b98161074c610567565b859190610ffe565b6001600160a01b038316600090815260046020908152604080832033845290915281205460001981146107b05761078b83826119c5565b6001600160a01b03861660009081526004602090815260408083203384529091529020555b6001600160a01b038516600090815260036020526040812080548592906107d89084906119c5565b90915550506001600160a01b0380851660008181526003602052604090819020805487019055519091871690600080516020611b74833981519152906108219087815260200190565b60405180910390a3506001949350505050565b60007f0000000000000000000000000000000000000000000000000000000000000000461461086a57610865611024565b905090565b507f000000000000000000000000000000000000000000000000000000000000000090565b600061072e8261069a565b60006108a46110be565b600654600160201b900463ffffffff1642106108c2576108c26108d8565b6108cc8383611117565b905061072e6001600855565b600654600160401b90046001600160c01b031660006108f6426111f1565b60065490915063ffffffff600160201b9091048116908216101561092d5760405163127d33e760e21b815260040160405180910390fd5b6007546040516370a0823160e01b81523060048201526000906001600160c01b0385169083907f00000000000000000000000000000000000000000000000000000000000000006001600160a01b0316906370a0823190602401602060405180830381865afa1580156109a4573d6000803e3d6000fd5b505050506040513d601f19601f820116820180604052508101906109c89190611a53565b6109d291906119c5565b6109dc91906119c5565b90506109f16001600160c01b0385168361198e565b60075560007f000000000000000000000000000000000000000000000000000000000000000080610a228187611a6c565b610a2c9190611a89565b610a369190611aac565b9050610a6360147f0000000000000000000000000000000000000000000000000000000000000000611a89565b63ffffffff16610a7385836119a1565b63ffffffff161015610aac57610aa97f000000000000000000000000000000000000000000000000000000000000000082611a6c565b90505b610ab582611207565b63ffffffff828116600160201b81026001600160c01b0393909316600160401b0267ffffffffffffffff191691871691909117919091176006556040517f2fa39aac60d1c94cda4ab0e86ae9c0ffab5b926e5b827a4ccba1d9b5b2ef596e90610b219085815260200190565b60405180910390a25050505050565b60008085610b3e5788610b42565b6000195b60405163d505accf60e01b8152336004820152306024820152604481018290526064810189905260ff8716608482015260a4810186905260c481018590529091507f00000000000000000000000000000000000000000000000000000000000000006001600160a01b03169063d505accf9060e401600060405180830381600087803b158015610bd157600080fd5b505af1158015610be5573d6000803e3d6000fd5b50505050610bf3898961089a565b9998505050505050505050565b6000610c0a6110be565b600654600160201b900463ffffffff164210610c2857610c286108d8565b6108cc8383611219565b6001805461061990611a19565b6000610865670de0b6b3a764000061069a565b33600090815260036020526040812080548391908390610c739084906119c5565b90915550506001600160a01b03831660008181526003602052604090819020805485019055513390600080516020611b74833981519152906107229086815260200190565b60025460009080156106be576106b9610ccf610567565b849083610ffe565b6000610ce16110be565b600654600160201b900463ffffffff164210610cff57610cff6108d8565b610d0a8484846112b5565b90506106c06001600855565b600654600090600160201b900463ffffffff164210610d3757610d376108d8565b610d428484846113c3565b949350505050565b60025460009080156106be576106b981610d62610567565b859190610fe0565b6001600160a01b03811660009081526003602052604081205461072e9061069a565b42841015610de15760405162461bcd60e51b815260206004820152601760248201527f5045524d49545f444541444c494e455f4558504952454400000000000000000060448201526064015b60405180910390fd5b60006001610ded610834565b6001600160a01b038a811660008181526005602090815260409182902080546001810190915582517f6e71edae12b1b97f4d1f60370fef10105fa2faae0126114a169c64845d6126c98184015280840194909452938d166060840152608083018c905260a083019390935260c08083018b90528151808403909101815260e08301909152805192019190912061190160f01b6101008301526101028201929092526101228101919091526101420160408051601f198184030181528282528051602091820120600084529083018083525260ff871690820152606081018590526080810184905260a0016020604051602081039080840390855afa158015610ef9573d6000803e3d6000fd5b5050604051601f1901519150506001600160a01b03811615801590610f2f5750876001600160a01b0316816001600160a01b0316145b610f6c5760405162461bcd60e51b815260206004820152600e60248201526d24a72b20a624a22fa9a4a3a722a960911b6044820152606401610dd8565b6001600160a01b0390811660009081526004602090815260408083208a8516808552908352928190208990555188815291928a16917f8c5be1e5ebec7d5bd14f71427d1e84f3dd0314c0f7b2291e5b200ac8c7c3b925910160405180910390a350505050505050565b600061072e82610d4a565b6000826000190484118302158202610ff757600080fd5b5091020490565b600082600019048411830215820261101557600080fd5b50910281810615159190040190565b60007f8b73c3c69bb8fe3d512ecc4cf759cc79239f7b179b0ffacaa9a75d522b39400f60006040516110569190611ad4565b6040805191829003822060208301939093528101919091527fc89efdaa54c0f20c7adf612882df0950f5a951637e0307cdcb4c672f298b8bc660608201524660808201523060a082015260c00160405160208183030381529060405280519060200120905090565b6002600854036111105760405162461bcd60e51b815260206004820152601f60248201527f5265656e7472616e637947756172643a207265656e7472616e742063616c6c006044820152606401610dd8565b6002600855565b600061112283610fd5565b9050806000036111625760405162461bcd60e51b815260206004820152600b60248201526a5a45524f5f53484152455360a81b6044820152606401610dd8565b6111976001600160a01b037f00000000000000000000000000000000000000000000000000000000000000001633308661150f565b6111a18282611599565b60408051848152602081018390526001600160a01b0384169133917fdcbc1c05240f31ff3ad067ef1ee35ce4997762752e3a095284754544f4c709d7910160405180910390a361072e83826115f3565b6000600160201b821061120357600080fd5b5090565b6000600160c01b821061120357600080fd5b600061122483610cb8565b905061125b6001600160a01b037f00000000000000000000000000000000000000000000000000000000000000001633308461150f565b6112658284611599565b60408051828152602081018590526001600160a01b0384169133917fdcbc1c05240f31ff3ad067ef1ee35ce4997762752e3a095284754544f4c709d7910160405180910390a361072e81846115f3565b60006112c084610734565b9050336001600160a01b03831614611330576001600160a01b0382166000908152600460209081526040808320338452909152902054600019811461132e5761130982826119c5565b6001600160a01b03841660009081526004602090815260408083203384529091529020555b505b61133a8482611617565b6113448282611632565b60408051858152602081018390526001600160a01b03808516929086169133917ffbde797d201c681b91056529119e0b02407c7bb96a4a2c75c01fc9667232c8db910160405180910390a46106c06001600160a01b037f0000000000000000000000000000000000000000000000000000000000000000168486611694565b6000336001600160a01b03831614611433576001600160a01b038216600090815260046020908152604080832033845290915290205460001981146114315761140c85826119c5565b6001600160a01b03841660009081526004602090815260408083203384529091529020555b505b61143c8461088f565b90508060000361147c5760405162461bcd60e51b815260206004820152600b60248201526a5a45524f5f41535345545360a81b6044820152606401610dd8565b6114868185611617565b6114908285611632565b60408051828152602081018690526001600160a01b03808516929086169133917ffbde797d201c681b91056529119e0b02407c7bb96a4a2c75c01fc9667232c8db910160405180910390a46106c06001600160a01b037f0000000000000000000000000000000000000000000000000000000000000000168483611694565b60006040516323b872dd60e01b81528460048201528360248201528260448201526020600060648360008a5af13d15601f3d11600160005114161716915050806115925760405162461bcd60e51b81526020600482015260146024820152731514905394d1915497d19493d357d1905253115160621b6044820152606401610dd8565b5050505050565b80600260008282546115ab919061198e565b90915550506001600160a01b038216600081815260036020908152604080832080548601905551848152600080516020611b7483398151915291015b60405180910390a35050565b8160076000828254611605919061198e565b909155506116139050828282565b5050565b816007600082825461162991906119c5565b90915550505050565b6001600160a01b0382166000908152600360205260408120805483929061165a9084906119c5565b90915550506002805482900390556040518181526000906001600160a01b03841690600080516020611b74833981519152906020016115e7565b600060405163a9059cbb60e01b8152836004820152826024820152602060006044836000895af13d15601f3d116001600051141617169150508061170c5760405162461bcd60e51b815260206004820152600f60248201526e1514905394d1915497d19052531151608a1b6044820152606401610dd8565b50505050565b600060208083528351808285015260005b8181101561173f57858101830151858201604001528201611723565b506000604082860101526040601f19601f8301168501019250505092915050565b60006020828403121561177257600080fd5b5035919050565b80356001600160a01b038116811461179057600080fd5b919050565b600080604083850312156117a857600080fd5b6117b183611779565b946020939093013593505050565b6000806000606084860312156117d457600080fd5b6117dd84611779565b92506117eb60208501611779565b9150604084013590509250925092565b60006020828403121561180d57600080fd5b6106c082611779565b6000806040838503121561182957600080fd5b8235915061183960208401611779565b90509250929050565b803560ff8116811461179057600080fd5b600080600080600080600060e0888a03121561186e57600080fd5b8735965061187e60208901611779565b9550604088013594506060880135801515811461189a57600080fd5b93506118a860808901611842565b925060a0880135915060c0880135905092959891949750929550565b6000806000606084860312156118d957600080fd5b833592506118e960208501611779565b91506118f760408501611779565b90509250925092565b600080600080600080600060e0888a03121561191b57600080fd5b61192488611779565b965061193260208901611779565b955060408801359450606088013593506118a860808901611842565b6000806040838503121561196157600080fd5b61196a83611779565b915061183960208401611779565b634e487b7160e01b600052601160045260246000fd5b8082018082111561072e5761072e611978565b63ffffffff8281168282160390808211156119be576119be611978565b5092915050565b8181038181111561072e5761072e611978565b808202811582820484141761072e5761072e611978565b634e487b7160e01b600052601260045260246000fd5b600082611a1457611a146119ef565b500490565b600181811c90821680611a2d57607f821691505b602082108103611a4d57634e487b7160e01b600052602260045260246000fd5b50919050565b600060208284031215611a6557600080fd5b5051919050565b63ffffffff8181168382160190808211156119be576119be611978565b600063ffffffff80841680611aa057611aa06119ef565b92169190910492915050565b63ffffffff818116838216028082169190828114611acc57611acc611978565b505092915050565b600080835481600182811c915080831680611af057607f831692505b60208084108203611b0f57634e487b7160e01b86526022600452602486fd5b818015611b235760018114611b3857611b65565b60ff1986168952841515850289019650611b65565b60008a81526020902060005b86811015611b5d5781548b820152908501908301611b44565b505084890196505b50949897505050505050505056feddf252ad1be2c89b69c2b068fc378daa952ba7f163c4a11628f55a4df523b3efa26469706673582212205d4f6ebc66ef8259072bf32a7ff810facb55707c9e0d95b850db77239cb316e364736f6c6343000814003357726170706564205368617265645374616b6520476f7665726e6564204574686572",
  "devdoc": {
    "details": "Exchange rate between sgETH and ssgETH floats, you can convert your ssgETH for more sgETH over time. Exchange rate increases as validator rewardSplitter mints new sgETH corresponding to the staking yield and drops it into this vault (ssgETH contract). There is a short time period, cycles which the exchange rate increases linearly over. This is to prevent gaming the exchange rate (MEV). The cycles are constant length, but calling syncRewards slightly into a would-be cycle keeps the same would-be endpoint (so cycle ends are every X seconds). Someone must call syncRewards, which queues any new ssgETH in the contract to be added to the redeemable amount. Mint vs Deposit mint() - deposit targeting a specific number of ssgETH out deposit() - deposit knowing a specific number of ssgETH in ",
    "errors": {
      "SyncError()": [
        {
          "details": "thrown when syncing before cycle ends."
        }
      ]
    },
    "events": {
      "NewRewardsCycle(uint32,uint256)": {
        "details": "emit every time a new rewards cycle starts"
      }
    },
    "kind": "dev",
    "methods": {},
    "version": 1
  },
  "userdoc": {
    "kind": "user",
    "methods": {
      "deposit(uint256,address)": {
        "notice": "inlines syncRewards with deposits when able"
      },
      "depositWithSignature(uint256,address,uint256,bool,uint8,bytes32,bytes32)": {
        "notice": "Approve and deposit() in one transaction"
      },
      "lastRewardAmount()": {
        "notice": "the amount of rewards distributed in a the most recent cycle."
      },
      "lastSync()": {
        "notice": "the effective start of the current cycle"
      },
      "mint(uint256,address)": {
        "notice": "inlines syncRewards with mints when able"
      },
      "pricePerShare()": {
        "notice": "How much sgETH is 1E18 ssgETH worth. Price is in ETH, not USD"
      },
      "redeem(uint256,address,address)": {
        "notice": "inlines syncRewards with redemptions when able"
      },
      "rewardsCycleEnd()": {
        "notice": "the end of the current cycle. Will always be evenly divisible by `rewardsCycleLength`."
      },
      "rewardsCycleLength()": {
        "notice": "the maximum length of a rewards cycle"
      },
      "syncRewards()": {
        "notice": "Distributes rewards to xERC4626 holders. All surplus `asset` balance of the contract over the internal balance becomes queued for the next cycle."
      },
      "totalAssets()": {
        "notice": "Compute the amount of tokens available to share holders.         Increases linearly during a reward distribution period from the sync call, not the cycle start."
      },
      "withdraw(uint256,address,address)": {
        "notice": "inlines syncRewards with withdrawals when able"
      }
    },
    "version": 1
  },
  "storageLayout": {
    "storage": [
      {
        "astId": 19389,
        "contract": "contracts/v2/core/WSGEth.sol:WSGETH",
        "label": "name",
        "offset": 0,
        "slot": "0",
        "type": "t_string_storage"
      },
      {
        "astId": 19391,
        "contract": "contracts/v2/core/WSGEth.sol:WSGETH",
        "label": "symbol",
        "offset": 0,
        "slot": "1",
        "type": "t_string_storage"
      },
      {
        "astId": 19395,
        "contract": "contracts/v2/core/WSGEth.sol:WSGETH",
        "label": "totalSupply",
        "offset": 0,
        "slot": "2",
        "type": "t_uint256"
      },
      {
        "astId": 19399,
        "contract": "contracts/v2/core/WSGEth.sol:WSGETH",
        "label": "balanceOf",
        "offset": 0,
        "slot": "3",
        "type": "t_mapping(t_address,t_uint256)"
      },
      {
        "astId": 19405,
        "contract": "contracts/v2/core/WSGEth.sol:WSGETH",
        "label": "allowance",
        "offset": 0,
        "slot": "4",
        "type": "t_mapping(t_address,t_mapping(t_address,t_uint256))"
      },
      {
        "astId": 19413,
        "contract": "contracts/v2/core/WSGEth.sol:WSGETH",
        "label": "nonces",
        "offset": 0,
        "slot": "5",
        "type": "t_mapping(t_address,t_uint256)"
      },
      {
        "astId": 18069,
        "contract": "contracts/v2/core/WSGEth.sol:WSGETH",
        "label": "lastSync",
        "offset": 0,
        "slot": "6",
        "type": "t_uint32"
      },
      {
        "astId": 18072,
        "contract": "contracts/v2/core/WSGEth.sol:WSGETH",
        "label": "rewardsCycleEnd",
        "offset": 4,
        "slot": "6",
        "type": "t_uint32"
      },
      {
        "astId": 18075,
        "contract": "contracts/v2/core/WSGEth.sol:WSGETH",
        "label": "lastRewardAmount",
        "offset": 8,
        "slot": "6",
        "type": "t_uint192"
      },
      {
        "astId": 18077,
        "contract": "contracts/v2/core/WSGEth.sol:WSGETH",
        "label": "storedTotalAssets",
        "offset": 0,
        "slot": "7",
        "type": "t_uint256"
      },
      {
        "astId": 4774,
        "contract": "contracts/v2/core/WSGEth.sol:WSGETH",
        "label": "_status",
        "offset": 0,
        "slot": "8",
        "type": "t_uint256"
      }
    ],
    "types": {
      "t_address": {
        "encoding": "inplace",
        "label": "address",
        "numberOfBytes": "20"
      },
      "t_mapping(t_address,t_mapping(t_address,t_uint256))": {
        "encoding": "mapping",
        "key": "t_address",
        "label": "mapping(address => mapping(address => uint256))",
        "numberOfBytes": "32",
        "value": "t_mapping(t_address,t_uint256)"
      },
      "t_mapping(t_address,t_uint256)": {
        "encoding": "mapping",
        "key": "t_address",
        "label": "mapping(address => uint256)",
        "numberOfBytes": "32",
        "value": "t_uint256"
      },
      "t_string_storage": {
        "encoding": "bytes",
        "label": "string",
        "numberOfBytes": "32"
      },
      "t_uint192": {
        "encoding": "inplace",
        "label": "uint192",
        "numberOfBytes": "24"
      },
      "t_uint256": {
        "encoding": "inplace",
        "label": "uint256",
        "numberOfBytes": "32"
      },
      "t_uint32": {
        "encoding": "inplace",
        "label": "uint32",
        "numberOfBytes": "4"
      }
    }
  }
}