{
  "address": "0x45E781C78A36c1502D1a3bA79B75c2814f378762",
  "abi": [
    {
      "inputs": [
        {
          "components": [
            {
              "internalType": "uint256",
              "name": "adminFee",
              "type": "uint256"
            },
            {
              "internalType": "uint256",
              "name": "exitFee",
              "type": "uint256"
            },
            {
              "internalType": "bool",
              "name": "refundFeesOnWithdraw",
              "type": "bool"
            },
            {
              "internalType": "bool",
              "name": "chargeOnDeposit",
              "type": "bool"
            },
            {
              "internalType": "bool",
              "name": "chargeOnExit",
              "type": "bool"
            }
          ],
          "internalType": "struct FeeCalc.Settings",
          "name": "_settings",
          "type": "tuple"
        }
      ],
      "stateMutability": "nonpayable",
      "type": "constructor"
    },
    {
      "anonymous": false,
      "inputs": [
        {
          "indexed": true,
          "internalType": "address",
          "name": "previousOwner",
          "type": "address"
        },
        {
          "indexed": true,
          "internalType": "address",
          "name": "newOwner",
          "type": "address"
        }
      ],
      "name": "OwnershipTransferStarted",
      "type": "event"
    },
    {
      "anonymous": false,
      "inputs": [
        {
          "indexed": true,
          "internalType": "address",
          "name": "previousOwner",
          "type": "address"
        },
        {
          "indexed": true,
          "internalType": "address",
          "name": "newOwner",
          "type": "address"
        }
      ],
      "name": "OwnershipTransferred",
      "type": "event"
    },
    {
      "inputs": [],
      "name": "acceptOwnership",
      "outputs": [],
      "stateMutability": "nonpayable",
      "type": "function"
    },
    {
      "inputs": [],
      "name": "adminFee",
      "outputs": [
        {
          "internalType": "uint256",
          "name": "",
          "type": "uint256"
        }
      ],
      "stateMutability": "view",
      "type": "function"
    },
    {
      "inputs": [],
      "name": "config",
      "outputs": [
        {
          "internalType": "uint256",
          "name": "adminFee",
          "type": "uint256"
        },
        {
          "internalType": "uint256",
          "name": "exitFee",
          "type": "uint256"
        },
        {
          "internalType": "bool",
          "name": "refundFeesOnWithdraw",
          "type": "bool"
        },
        {
          "internalType": "bool",
          "name": "chargeOnDeposit",
          "type": "bool"
        },
        {
          "internalType": "bool",
          "name": "chargeOnExit",
          "type": "bool"
        }
      ],
      "stateMutability": "view",
      "type": "function"
    },
    {
      "inputs": [],
      "name": "costPerValidator",
      "outputs": [
        {
          "internalType": "uint256",
          "name": "",
          "type": "uint256"
        }
      ],
      "stateMutability": "view",
      "type": "function"
    },
    {
      "inputs": [],
      "name": "owner",
      "outputs": [
        {
          "internalType": "address",
          "name": "",
          "type": "address"
        }
      ],
      "stateMutability": "view",
      "type": "function"
    },
    {
      "inputs": [],
      "name": "pendingOwner",
      "outputs": [
        {
          "internalType": "address",
          "name": "",
          "type": "address"
        }
      ],
      "stateMutability": "view",
      "type": "function"
    },
    {
      "inputs": [
        {
          "internalType": "uint256",
          "name": "value",
          "type": "uint256"
        },
        {
          "internalType": "address",
          "name": "_sender",
          "type": "address"
        }
      ],
      "name": "processDeposit",
      "outputs": [
        {
          "internalType": "uint256",
          "name": "amt",
          "type": "uint256"
        },
        {
          "internalType": "uint256",
          "name": "fee",
          "type": "uint256"
        }
      ],
      "stateMutability": "view",
      "type": "function"
    },
    {
      "inputs": [
        {
          "internalType": "uint256",
          "name": "value",
          "type": "uint256"
        },
        {
          "internalType": "address",
          "name": "_sender",
          "type": "address"
        }
      ],
      "name": "processWithdraw",
      "outputs": [
        {
          "internalType": "uint256",
          "name": "amt",
          "type": "uint256"
        },
        {
          "internalType": "uint256",
          "name": "fee",
          "type": "uint256"
        }
      ],
      "stateMutability": "view",
      "type": "function"
    },
    {
      "inputs": [],
      "name": "renounceOwnership",
      "outputs": [],
      "stateMutability": "nonpayable",
      "type": "function"
    },
    {
      "inputs": [
        {
          "components": [
            {
              "internalType": "uint256",
              "name": "adminFee",
              "type": "uint256"
            },
            {
              "internalType": "uint256",
              "name": "exitFee",
              "type": "uint256"
            },
            {
              "internalType": "bool",
              "name": "refundFeesOnWithdraw",
              "type": "bool"
            },
            {
              "internalType": "bool",
              "name": "chargeOnDeposit",
              "type": "bool"
            },
            {
              "internalType": "bool",
              "name": "chargeOnExit",
              "type": "bool"
            }
          ],
          "internalType": "struct FeeCalc.Settings",
          "name": "newSettings",
          "type": "tuple"
        }
      ],
      "name": "set",
      "outputs": [],
      "stateMutability": "nonpayable",
      "type": "function"
    },
    {
      "inputs": [
        {
          "internalType": "uint256",
          "name": "amount",
          "type": "uint256"
        }
      ],
      "name": "setAdminFee",
      "outputs": [],
      "stateMutability": "nonpayable",
      "type": "function"
    },
    {
      "inputs": [
        {
          "internalType": "uint256",
          "name": "_exitFee",
          "type": "uint256"
        }
      ],
      "name": "setExitFee",
      "outputs": [],
      "stateMutability": "nonpayable",
      "type": "function"
    },
    {
      "inputs": [
        {
          "internalType": "bool",
          "name": "_refundFeesOnWithdraw",
          "type": "bool"
        }
      ],
      "name": "setRefundFeesOnWithdraw",
      "outputs": [],
      "stateMutability": "nonpayable",
      "type": "function"
    },
    {
      "inputs": [
        {
          "internalType": "address",
          "name": "newOwner",
          "type": "address"
        }
      ],
      "name": "transferOwnership",
      "outputs": [],
      "stateMutability": "nonpayable",
      "type": "function"
    }
  ],
  "transactionHash": "0x3a5b9a830fbcc1c95098b4534f01395117bb0844b8a2e910f6bc9bd7a7a6e88b",
  "args": [
    {
      "adminFee": 0,
      "exitFee": 0,
      "refundFeesOnWithdraw": false,
      "chargeOnDeposit": true,
      "chargeOnExit": false
    }
  ],
  "numDeployments": 1,
  "solcInputHash": "61fc510774bb4eddca51caab8f8d5192",
  "bytecode": "0x60a060405261271060805234801561001657600080fd5b506040516109e33803806109e383398101604081905261003591610154565b61003e336100d3565b80516005819055600281905560208083015160035560408301516004805460608601516080808801511515620100000262ff0000199215156101000261ff00199615159690961661ffff1990941693909317949094171617905551916100a3916101f9565b6100ae906020610216565b6100c090670de0b6b3a76400006101f9565b6100ca9190610229565b6006555061024b565b600180546001600160a01b03191690556100ec816100ef565b50565b600080546001600160a01b038381166001600160a01b0319831681178455604051919092169283917f8be0079c531659141344cd1fd0a4f28419497f9722a3daafe3b4186f6b6457e09190a35050565b8051801515811461014f57600080fd5b919050565b600060a0828403121561016657600080fd5b60405160a081016001600160401b038111828210171561019657634e487b7160e01b600052604160045260246000fd5b806040525082518152602083015160208201526101b56040840161013f565b60408201526101c66060840161013f565b60608201526101d76080840161013f565b60808201529392505050565b634e487b7160e01b600052601160045260246000fd5b8082028115828204841417610210576102106101e3565b92915050565b80820180821115610210576102106101e3565b60008261024657634e487b7160e01b600052601260045260246000fd5b500490565b60805161076f61027460003960008181610260015281816102c00152610325015261076f6000f3fe608060405234801561001057600080fd5b50600436106100ea5760003560e01c8063a0be06f91161008c578063e30c397811610066578063e30c39781461020e578063e5a583a91461021f578063eb52f3ae14610232578063f2fde38b1461023b57600080fd5b8063a0be06f9146101d1578063c0f7056c146101e8578063dc5df639146101fb57600080fd5b806379502c55116100c857806379502c551461013957806379ba5097146101915780638beb60b6146101995780638da5cb5b146101ac57600080fd5b806301e41bba146100ef5780633b3436f61461011c578063715018a61461012f575b600080fd5b6101026100fd3660046105a6565b61024e565b604080519283526020830191909152015b60405180910390f35b61010261012a3660046105a6565b61030e565b610137610371565b005b60025460035460045461016192919060ff808216916101008104821691620100009091041685565b6040805195865260208601949094529115159284019290925290151560608301521515608082015260a001610113565b610137610385565b6101376101a73660046105d2565b610404565b6000546001600160a01b03165b6040516001600160a01b039091168152602001610113565b6101da60055481565b604051908152602001610113565b6101376101f63660046105f9565b610416565b61013761020936600461061d565b610431565b6001546001600160a01b03166101b9565b61013761022d3660046105d2565b61044e565b6101da60065481565b610137610249366004610635565b61045b565b600454600090819060ff16156102aa577f00000000000000000000000000000000000000000000000000000000000000006005548561028d9190610666565b6102979190610683565b90506102a381856106a5565b9150610307565b60045462010000900460ff1615610300576003547f0000000000000000000000000000000000000000000000000000000000000000906102ea9086610666565b6102f49190610683565b90506102a381856106b8565b5082905060005b9250929050565b6004546000908190610100900460ff1615610307577f0000000000000000000000000000000000000000000000000000000000000000600554856103529190610666565b61035c9190610683565b905061036881856106b8565b91509250929050565b6103796104cc565b6103836000610526565b565b60015433906001600160a01b031681146103f85760405162461bcd60e51b815260206004820152602960248201527f4f776e61626c6532537465703a2063616c6c6572206973206e6f7420746865206044820152683732bb9037bbb732b960b91b60648201526084015b60405180910390fd5b61040181610526565b50565b61040c6104cc565b6005819055600255565b61041e6104cc565b6004805460ff1916911515919091179055565b6104396104cc565b80600261044682826106cb565b505035600555565b6104566104cc565b600355565b6104636104cc565b600180546001600160a01b0383166001600160a01b031990911681179091556104946000546001600160a01b031690565b6001600160a01b03167f38d16b8cac22d99fc7c124b9cd0de2d3fa1faef420bfe791d8c362d765e2270060405160405180910390a350565b6000546001600160a01b031633146103835760405162461bcd60e51b815260206004820181905260248201527f4f776e61626c653a2063616c6c6572206973206e6f7420746865206f776e657260448201526064016103ef565b600180546001600160a01b031916905561040181600080546001600160a01b038381166001600160a01b0319831681178455604051919092169283917f8be0079c531659141344cd1fd0a4f28419497f9722a3daafe3b4186f6b6457e09190a35050565b80356001600160a01b03811681146105a157600080fd5b919050565b600080604083850312156105b957600080fd5b823591506105c96020840161058a565b90509250929050565b6000602082840312156105e457600080fd5b5035919050565b801515811461040157600080fd5b60006020828403121561060b57600080fd5b8135610616816105eb565b9392505050565b600060a0828403121561062f57600080fd5b50919050565b60006020828403121561064757600080fd5b6106168261058a565b634e487b7160e01b600052601160045260246000fd5b808202811582820484141761067d5761067d610650565b92915050565b6000826106a057634e487b7160e01b600052601260045260246000fd5b500490565b8082018082111561067d5761067d610650565b8181038181111561067d5761067d610650565b81358155602082013560018201556002810160408301356106eb816105eb565b815460608501356106fb816105eb565b6080860135610709816105eb565b90151560081b61ff001662ffffff199290921692151560ff16929092171790151560101b62ff000016179055505056fea2646970667358221220a62387c0f63c3290e9e55d1e2145fba75f111783fc08523b5853034adbfeb74a64736f6c63430008140033",
  "devdoc": {
    "kind": "dev",
    "methods": {
      "acceptOwnership()": {
        "details": "The new owner accepts the ownership transfer."
      },
      "owner()": {
        "details": "Returns the address of the current owner."
      },
      "pendingOwner()": {
        "details": "Returns the address of the pending owner."
      },
      "renounceOwnership()": {
        "details": "Leaves the contract without owner. It will not be possible to call `onlyOwner` functions. Can only be called by the current owner. NOTE: Renouncing ownership will leave the contract without an owner, thereby disabling any functionality that is only available to the owner."
      },
      "transferOwnership(address)": {
        "details": "Starts the ownership transfer of the contract to a new account. Replaces the pending transfer if there is one. Can only be called by the current owner."
      }
    },
    "version": 1
  },
  "userdoc": {
    "kind": "user",
    "methods": {},
    "version": 1
  },
  "storageLayout": {
    "storage": [
      {
        "astId": 4000,
        "contract": "contracts/v2/periphery/FeeCalc.sol:FeeCalc",
        "label": "_owner",
        "offset": 0,
        "slot": "0",
        "type": "t_address"
      },
      {
        "astId": 4113,
        "contract": "contracts/v2/periphery/FeeCalc.sol:FeeCalc",
        "label": "_pendingOwner",
        "offset": 0,
        "slot": "1",
        "type": "t_address"
      },
      {
        "astId": 18311,
        "contract": "contracts/v2/periphery/FeeCalc.sol:FeeCalc",
        "label": "config",
        "offset": 0,
        "slot": "2",
        "type": "t_struct(Settings)18308_storage"
      },
      {
        "astId": 18313,
        "contract": "contracts/v2/periphery/FeeCalc.sol:FeeCalc",
        "label": "adminFee",
        "offset": 0,
        "slot": "5",
        "type": "t_uint256"
      },
      {
        "astId": 18315,
        "contract": "contracts/v2/periphery/FeeCalc.sol:FeeCalc",
        "label": "costPerValidator",
        "offset": 0,
        "slot": "6",
        "type": "t_uint256"
      }
    ],
    "types": {
      "t_address": {
        "encoding": "inplace",
        "label": "address",
        "numberOfBytes": "20"
      },
      "t_bool": {
        "encoding": "inplace",
        "label": "bool",
        "numberOfBytes": "1"
      },
      "t_struct(Settings)18308_storage": {
        "encoding": "inplace",
        "label": "struct FeeCalc.Settings",
        "members": [
          {
            "astId": 18299,
            "contract": "contracts/v2/periphery/FeeCalc.sol:FeeCalc",
            "label": "adminFee",
            "offset": 0,
            "slot": "0",
            "type": "t_uint256"
          },
          {
            "astId": 18301,
            "contract": "contracts/v2/periphery/FeeCalc.sol:FeeCalc",
            "label": "exitFee",
            "offset": 0,
            "slot": "1",
            "type": "t_uint256"
          },
          {
            "astId": 18303,
            "contract": "contracts/v2/periphery/FeeCalc.sol:FeeCalc",
            "label": "refundFeesOnWithdraw",
            "offset": 0,
            "slot": "2",
            "type": "t_bool"
          },
          {
            "astId": 18305,
            "contract": "contracts/v2/periphery/FeeCalc.sol:FeeCalc",
            "label": "chargeOnDeposit",
            "offset": 1,
            "slot": "2",
            "type": "t_bool"
          },
          {
            "astId": 18307,
            "contract": "contracts/v2/periphery/FeeCalc.sol:FeeCalc",
            "label": "chargeOnExit",
            "offset": 2,
            "slot": "2",
            "type": "t_bool"
          }
        ],
        "numberOfBytes": "96"
      },
      "t_uint256": {
        "encoding": "inplace",
        "label": "uint256",
        "numberOfBytes": "32"
      }
    }
  }
}