{
  "address": "0xa06f409403485BB32A47ef00Bc315428Fd098057",
  "abi": [
    {
      "inputs": [
        {
          "components": [
            {
              "internalType": "uint256",
              "name": "adminFee",
              "type": "uint256"
            },
            {
              "internalType": "uint256",
              "name": "exitFee",
              "type": "uint256"
            },
            {
              "internalType": "bool",
              "name": "refundFeesOnWithdraw",
              "type": "bool"
            },
            {
              "internalType": "bool",
              "name": "chargeOnDeposit",
              "type": "bool"
            },
            {
              "internalType": "bool",
              "name": "chargeOnExit",
              "type": "bool"
            }
          ],
          "internalType": "struct FeeCalc.Settings",
          "name": "_settings",
          "type": "tuple"
        }
      ],
      "stateMutability": "nonpayable",
      "type": "constructor"
    },
    {
      "anonymous": false,
      "inputs": [
        {
          "indexed": true,
          "internalType": "address",
          "name": "previousOwner",
          "type": "address"
        },
        {
          "indexed": true,
          "internalType": "address",
          "name": "newOwner",
          "type": "address"
        }
      ],
      "name": "OwnershipTransferStarted",
      "type": "event"
    },
    {
      "anonymous": false,
      "inputs": [
        {
          "indexed": true,
          "internalType": "address",
          "name": "previousOwner",
          "type": "address"
        },
        {
          "indexed": true,
          "internalType": "address",
          "name": "newOwner",
          "type": "address"
        }
      ],
      "name": "OwnershipTransferred",
      "type": "event"
    },
    {
      "inputs": [],
      "name": "acceptOwnership",
      "outputs": [],
      "stateMutability": "nonpayable",
      "type": "function"
    },
    {
      "inputs": [],
      "name": "adminFee",
      "outputs": [
        {
          "internalType": "uint256",
          "name": "",
          "type": "uint256"
        }
      ],
      "stateMutability": "view",
      "type": "function"
    },
    {
      "inputs": [],
      "name": "costPerValidator",
      "outputs": [
        {
          "internalType": "uint256",
          "name": "",
          "type": "uint256"
        }
      ],
      "stateMutability": "view",
      "type": "function"
    },
    {
      "inputs": [],
      "name": "owner",
      "outputs": [
        {
          "internalType": "address",
          "name": "",
          "type": "address"
        }
      ],
      "stateMutability": "view",
      "type": "function"
    },
    {
      "inputs": [],
      "name": "pendingOwner",
      "outputs": [
        {
          "internalType": "address",
          "name": "",
          "type": "address"
        }
      ],
      "stateMutability": "view",
      "type": "function"
    },
    {
      "inputs": [
        {
          "internalType": "uint256",
          "name": "value",
          "type": "uint256"
        },
        {
          "internalType": "address",
          "name": "_sender",
          "type": "address"
        }
      ],
      "name": "processDeposit",
      "outputs": [
        {
          "internalType": "uint256",
          "name": "amt",
          "type": "uint256"
        },
        {
          "internalType": "uint256",
          "name": "fee",
          "type": "uint256"
        }
      ],
      "stateMutability": "view",
      "type": "function"
    },
    {
      "inputs": [
        {
          "internalType": "uint256",
          "name": "value",
          "type": "uint256"
        },
        {
          "internalType": "address",
          "name": "_sender",
          "type": "address"
        }
      ],
      "name": "processWithdraw",
      "outputs": [
        {
          "internalType": "uint256",
          "name": "amt",
          "type": "uint256"
        },
        {
          "internalType": "uint256",
          "name": "fee",
          "type": "uint256"
        }
      ],
      "stateMutability": "view",
      "type": "function"
    },
    {
      "inputs": [],
      "name": "renounceOwnership",
      "outputs": [],
      "stateMutability": "nonpayable",
      "type": "function"
    },
    {
      "inputs": [
        {
          "components": [
            {
              "internalType": "uint256",
              "name": "adminFee",
              "type": "uint256"
            },
            {
              "internalType": "uint256",
              "name": "exitFee",
              "type": "uint256"
            },
            {
              "internalType": "bool",
              "name": "refundFeesOnWithdraw",
              "type": "bool"
            },
            {
              "internalType": "bool",
              "name": "chargeOnDeposit",
              "type": "bool"
            },
            {
              "internalType": "bool",
              "name": "chargeOnExit",
              "type": "bool"
            }
          ],
          "internalType": "struct FeeCalc.Settings",
          "name": "newSettings",
          "type": "tuple"
        }
      ],
      "name": "set",
      "outputs": [],
      "stateMutability": "nonpayable",
      "type": "function"
    },
    {
      "inputs": [
        {
          "internalType": "uint256",
          "name": "amount",
          "type": "uint256"
        }
      ],
      "name": "setAdminFee",
      "outputs": [],
      "stateMutability": "nonpayable",
      "type": "function"
    },
    {
      "inputs": [
        {
          "internalType": "uint256",
          "name": "_exitFee",
          "type": "uint256"
        }
      ],
      "name": "setExitFee",
      "outputs": [],
      "stateMutability": "nonpayable",
      "type": "function"
    },
    {
      "inputs": [
        {
          "internalType": "bool",
          "name": "_refundFeesOnWithdraw",
          "type": "bool"
        }
      ],
      "name": "setRefundFeesOnWithdraw",
      "outputs": [],
      "stateMutability": "nonpayable",
      "type": "function"
    },
    {
      "inputs": [
        {
          "internalType": "address",
          "name": "newOwner",
          "type": "address"
        }
      ],
      "name": "transferOwnership",
      "outputs": [],
      "stateMutability": "nonpayable",
      "type": "function"
    }
  ],
  "transactionHash": "0x76be56ba3e35e0dd96cda9773553f52e5c826621cd9b335b4d8fa6ae95ef7b7b",
  "args": [
    {
      "adminFee": 10,
      "exitFee": 0,
      "refundFeesOnWithdraw": true,
      "chargeOnDeposit": true,
      "chargeOnExit": false
    }
  ],
  "numDeployments": 1,
  "solcInputHash": "b098c02b927c81fd02abb8247583d190",
  "bytecode": "0x60a060405261271060805234801561001657600080fd5b5060405161097038038061097083398101604081905261003591610154565b61003e336100d3565b80516005819055600281905560208083015160035560408301516004805460608601516080808801511515620100000262ff0000199215156101000261ff00199615159690961661ffff1990941693909317949094171617905551916100a3916101f9565b6100ae906020610216565b6100c090670de0b6b3a76400006101f9565b6100ca9190610229565b6006555061024b565b600180546001600160a01b03191690556100ec816100ef565b50565b600080546001600160a01b038381166001600160a01b0319831681178455604051919092169283917f8be0079c531659141344cd1fd0a4f28419497f9722a3daafe3b4186f6b6457e09190a35050565b8051801515811461014f57600080fd5b919050565b600060a0828403121561016657600080fd5b60405160a081016001600160401b038111828210171561019657634e487b7160e01b600052604160045260246000fd5b806040525082518152602083015160208201526101b56040840161013f565b60408201526101c66060840161013f565b60608201526101d76080840161013f565b60808201529392505050565b634e487b7160e01b600052601160045260246000fd5b8082028115828204841417610210576102106101e3565b92915050565b80820180821115610210576102106101e3565b60008261024657634e487b7160e01b600052601260045260246000fd5b500490565b6080516106fc610274600039600081816101ed0152818161024d01526102b201526106fc6000f3fe608060405234801561001057600080fd5b50600436106100cf5760003560e01c8063a0be06f91161008c578063e30c397811610066578063e30c39781461019b578063e5a583a9146101ac578063eb52f3ae146101bf578063f2fde38b146101c857600080fd5b8063a0be06f91461015e578063c0f7056c14610175578063dc5df6391461018857600080fd5b806301e41bba146100d45780633b3436f614610101578063715018a61461011457806379ba50971461011e5780638beb60b6146101265780638da5cb5b14610139575b600080fd5b6100e76100e2366004610533565b6101db565b604080519283526020830191909152015b60405180910390f35b6100e761010f366004610533565b61029b565b61011c6102fe565b005b61011c610312565b61011c61013436600461055f565b610391565b6000546001600160a01b03165b6040516001600160a01b0390911681526020016100f8565b61016760055481565b6040519081526020016100f8565b61011c610183366004610586565b6103a3565b61011c6101963660046105aa565b6103be565b6001546001600160a01b0316610146565b61011c6101ba36600461055f565b6103db565b61016760065481565b61011c6101d63660046105c2565b6103e8565b600454600090819060ff1615610237577f00000000000000000000000000000000000000000000000000000000000000006005548561021a91906105f3565b6102249190610610565b90506102308185610632565b9150610294565b60045462010000900460ff161561028d576003547f00000000000000000000000000000000000000000000000000000000000000009061027790866105f3565b6102819190610610565b90506102308185610645565b5082905060005b9250929050565b6004546000908190610100900460ff1615610294577f0000000000000000000000000000000000000000000000000000000000000000600554856102df91906105f3565b6102e99190610610565b90506102f58185610645565b91509250929050565b610306610459565b61031060006104b3565b565b60015433906001600160a01b031681146103855760405162461bcd60e51b815260206004820152602960248201527f4f776e61626c6532537465703a2063616c6c6572206973206e6f7420746865206044820152683732bb9037bbb732b960b91b60648201526084015b60405180910390fd5b61038e816104b3565b50565b610399610459565b6005819055600255565b6103ab610459565b6004805460ff1916911515919091179055565b6103c6610459565b8060026103d38282610658565b505035600555565b6103e3610459565b600355565b6103f0610459565b600180546001600160a01b0383166001600160a01b031990911681179091556104216000546001600160a01b031690565b6001600160a01b03167f38d16b8cac22d99fc7c124b9cd0de2d3fa1faef420bfe791d8c362d765e2270060405160405180910390a350565b6000546001600160a01b031633146103105760405162461bcd60e51b815260206004820181905260248201527f4f776e61626c653a2063616c6c6572206973206e6f7420746865206f776e6572604482015260640161037c565b600180546001600160a01b031916905561038e81600080546001600160a01b038381166001600160a01b0319831681178455604051919092169283917f8be0079c531659141344cd1fd0a4f28419497f9722a3daafe3b4186f6b6457e09190a35050565b80356001600160a01b038116811461052e57600080fd5b919050565b6000806040838503121561054657600080fd5b8235915061055660208401610517565b90509250929050565b60006020828403121561057157600080fd5b5035919050565b801515811461038e57600080fd5b60006020828403121561059857600080fd5b81356105a381610578565b9392505050565b600060a082840312156105bc57600080fd5b50919050565b6000602082840312156105d457600080fd5b6105a382610517565b634e487b7160e01b600052601160045260246000fd5b808202811582820484141761060a5761060a6105dd565b92915050565b60008261062d57634e487b7160e01b600052601260045260246000fd5b500490565b8082018082111561060a5761060a6105dd565b8181038181111561060a5761060a6105dd565b813581556020820135600182015560028101604083013561067881610578565b8154606085013561068881610578565b608086013561069681610578565b90151560081b61ff001662ffffff199290921692151560ff16929092171790151560101b62ff000016179055505056fea26469706673582212206421837392b8e91d6dacd1ae82ef1c709308fa2a2abd91758213d711c3b8d6e564736f6c63430008140033",
  "devdoc": {
    "kind": "dev",
    "methods": {
      "acceptOwnership()": {
        "details": "The new owner accepts the ownership transfer."
      },
      "owner()": {
        "details": "Returns the address of the current owner."
      },
      "pendingOwner()": {
        "details": "Returns the address of the pending owner."
      },
      "renounceOwnership()": {
        "details": "Leaves the contract without owner. It will not be possible to call `onlyOwner` functions. Can only be called by the current owner. NOTE: Renouncing ownership will leave the contract without an owner, thereby disabling any functionality that is only available to the owner."
      },
      "transferOwnership(address)": {
        "details": "Starts the ownership transfer of the contract to a new account. Replaces the pending transfer if there is one. Can only be called by the current owner."
      }
    },
    "version": 1
  },
  "userdoc": {
    "kind": "user",
    "methods": {},
    "version": 1
  },
  "storageLayout": {
    "storage": [
      {
        "astId": 4000,
        "contract": "contracts/v2/periphery/FeeCalc.sol:FeeCalc",
        "label": "_owner",
        "offset": 0,
        "slot": "0",
        "type": "t_address"
      },
      {
        "astId": 4113,
        "contract": "contracts/v2/periphery/FeeCalc.sol:FeeCalc",
        "label": "_pendingOwner",
        "offset": 0,
        "slot": "1",
        "type": "t_address"
      },
      {
        "astId": 18311,
        "contract": "contracts/v2/periphery/FeeCalc.sol:FeeCalc",
        "label": "config",
        "offset": 0,
        "slot": "2",
        "type": "t_struct(Settings)18308_storage"
      },
      {
        "astId": 18313,
        "contract": "contracts/v2/periphery/FeeCalc.sol:FeeCalc",
        "label": "adminFee",
        "offset": 0,
        "slot": "5",
        "type": "t_uint256"
      },
      {
        "astId": 18315,
        "contract": "contracts/v2/periphery/FeeCalc.sol:FeeCalc",
        "label": "costPerValidator",
        "offset": 0,
        "slot": "6",
        "type": "t_uint256"
      }
    ],
    "types": {
      "t_address": {
        "encoding": "inplace",
        "label": "address",
        "numberOfBytes": "20"
      },
      "t_bool": {
        "encoding": "inplace",
        "label": "bool",
        "numberOfBytes": "1"
      },
      "t_struct(Settings)18308_storage": {
        "encoding": "inplace",
        "label": "struct FeeCalc.Settings",
        "members": [
          {
            "astId": 18299,
            "contract": "contracts/v2/periphery/FeeCalc.sol:FeeCalc",
            "label": "adminFee",
            "offset": 0,
            "slot": "0",
            "type": "t_uint256"
          },
          {
            "astId": 18301,
            "contract": "contracts/v2/periphery/FeeCalc.sol:FeeCalc",
            "label": "exitFee",
            "offset": 0,
            "slot": "1",
            "type": "t_uint256"
          },
          {
            "astId": 18303,
            "contract": "contracts/v2/periphery/FeeCalc.sol:FeeCalc",
            "label": "refundFeesOnWithdraw",
            "offset": 0,
            "slot": "2",
            "type": "t_bool"
          },
          {
            "astId": 18305,
            "contract": "contracts/v2/periphery/FeeCalc.sol:FeeCalc",
            "label": "chargeOnDeposit",
            "offset": 1,
            "slot": "2",
            "type": "t_bool"
          },
          {
            "astId": 18307,
            "contract": "contracts/v2/periphery/FeeCalc.sol:FeeCalc",
            "label": "chargeOnExit",
            "offset": 2,
            "slot": "2",
            "type": "t_bool"
          }
        ],
        "numberOfBytes": "96"
      },
      "t_uint256": {
        "encoding": "inplace",
        "label": "uint256",
        "numberOfBytes": "32"
      }
    }
  }
}