{
  "address": "0xAeBD9A9b883f539894A28CBCD866d50ca34000FD",
  "abi": [
    {
      "inputs": [
        {
          "internalType": "address",
          "name": "_withdrawalAddr",
          "type": "address"
        },
        {
          "internalType": "address[]",
          "name": "yieldDirectorAddresses",
          "type": "address[]"
        }
      ],
      "stateMutability": "payable",
      "type": "constructor"
    },
    {
      "anonymous": false,
      "inputs": [
        {
          "indexed": true,
          "internalType": "address",
          "name": "previousOwner",
          "type": "address"
        },
        {
          "indexed": true,
          "internalType": "address",
          "name": "newOwner",
          "type": "address"
        }
      ],
      "name": "OwnershipTransferred",
      "type": "event"
    },
    {
      "stateMutability": "payable",
      "type": "fallback"
    },
    {
      "inputs": [],
      "name": "MINTER",
      "outputs": [
        {
          "internalType": "contract ISharedDeposit",
          "name": "",
          "type": "address"
        }
      ],
      "stateMutability": "view",
      "type": "function"
    },
    {
      "inputs": [],
      "name": "SGETH",
      "outputs": [
        {
          "internalType": "contract IERC20",
          "name": "",
          "type": "address"
        }
      ],
      "stateMutability": "view",
      "type": "function"
    },
    {
      "inputs": [],
      "name": "WITHDRAWALS",
      "outputs": [
        {
          "internalType": "address payable",
          "name": "",
          "type": "address"
        }
      ],
      "stateMutability": "view",
      "type": "function"
    },
    {
      "inputs": [],
      "name": "WSGETH",
      "outputs": [
        {
          "internalType": "address",
          "name": "",
          "type": "address"
        }
      ],
      "stateMutability": "view",
      "type": "function"
    },
    {
      "inputs": [],
      "name": "feeSplitter",
      "outputs": [
        {
          "internalType": "address",
          "name": "",
          "type": "address"
        }
      ],
      "stateMutability": "view",
      "type": "function"
    },
    {
      "inputs": [],
      "name": "flipState",
      "outputs": [],
      "stateMutability": "nonpayable",
      "type": "function"
    },
    {
      "inputs": [],
      "name": "owner",
      "outputs": [
        {
          "internalType": "address",
          "name": "",
          "type": "address"
        }
      ],
      "stateMutability": "view",
      "type": "function"
    },
    {
      "inputs": [],
      "name": "renounceOwnership",
      "outputs": [],
      "stateMutability": "nonpayable",
      "type": "function"
    },
    {
      "inputs": [
        {
          "internalType": "address",
          "name": "_feeSplitter",
          "type": "address"
        }
      ],
      "name": "setDAOFeeSplitter",
      "outputs": [],
      "stateMutability": "nonpayable",
      "type": "function"
    },
    {
      "inputs": [],
      "name": "state",
      "outputs": [
        {
          "internalType": "enum RewardsReceiver.State",
          "name": "",
          "type": "uint8"
        }
      ],
      "stateMutability": "view",
      "type": "function"
    },
    {
      "inputs": [
        {
          "internalType": "address",
          "name": "newOwner",
          "type": "address"
        }
      ],
      "name": "transferOwnership",
      "outputs": [],
      "stateMutability": "nonpayable",
      "type": "function"
    },
    {
      "inputs": [],
      "name": "work",
      "outputs": [],
      "stateMutability": "payable",
      "type": "function"
    },
    {
      "stateMutability": "payable",
      "type": "receive"
    }
  ],
  "transactionHash": "0x18b5e163b98e537a1b28454acc39d9ffc66876cdc113ffd53e07813d183522c5",
  "args": [
    "0x93Ec5A17176336C95Bfb537A71130d6eEA6eF73D",
    [
      "0xCF4831EBE785437DC54a90018b1b410Bd16c8533",
      "0x514dfd2d10eC6775f030BA2abcf7A2445C0CA6Fb",
      "0x38E86964A811Ee66D1139CD97C838B713F63779B",
      "0x36c2F00cC7D02be7Df0BC9be2a8e08b74C4f2E56"
    ]
  ],
  "numDeployments": 1,
  "solcInputHash": "b098c02b927c81fd02abb8247583d190",
  "bytecode": "0x61010060405260405162000e1c38038062000e1c8339810160408190526200002791620001b3565b80620000333362000130565b806000815181106200004957620000496200029c565b60200260200101516001600160a01b03166080816001600160a01b031681525050806001815181106200008057620000806200029c565b60200260200101516001600160a01b031660a0816001600160a01b03168152505080600281518110620000b757620000b76200029c565b6020026020010151600160006101000a8154816001600160a01b0302191690836001600160a01b0316021790555080600381518110620000fb57620000fb6200029c565b60209081029190910101516001600160a01b0390811660c0529290921660e05250506001805460ff60a01b19169055620002b2565b600080546001600160a01b038381166001600160a01b0319831681178455604051919092169283917f8be0079c531659141344cd1fd0a4f28419497f9722a3daafe3b4186f6b6457e09190a35050565b80516001600160a01b03811681146200019857600080fd5b919050565b634e487b7160e01b600052604160045260246000fd5b60008060408385031215620001c757600080fd5b620001d28362000180565b602084810151919350906001600160401b0380821115620001f257600080fd5b818601915086601f8301126200020757600080fd5b8151818111156200021c576200021c6200019d565b8060051b604051601f19603f830116810181811085821117156200024457620002446200019d565b6040529182528482019250838101850191898311156200026357600080fd5b938501935b828510156200028c576200027c8562000180565b8452938501939285019262000268565b8096505050505050509250929050565b634e487b7160e01b600052603260045260246000fd5b60805160a05160c05160e051610b07620003156000396000818160c001526102d901526000818161025701526104520152600081816101a101526105d9015260008181610203015281816104da0152818161058401526105b80152610b076000f3fe6080604052600436106100a55760003560e01c80639e660663116100615780639e6606631461016f578063b8902ff71461018f578063c19d93fb146101c3578063cf36fd24146101f1578063f2fde38b14610225578063fe6d81241461024557005b80632b3d9215146100ae578063322e9f04146100ff5780636052970c14610107578063715018a6146101275780638da5cb5b1461013c5780638e9203511461015a57005b366100ac57005b005b3480156100ba57600080fd5b506100e27f000000000000000000000000000000000000000000000000000000000000000081565b6040516001600160a01b0390911681526020015b60405180910390f35b6100ac610279565b34801561011357600080fd5b506001546100e2906001600160a01b031681565b34801561013357600080fd5b506100ac610324565b34801561014857600080fd5b506000546001600160a01b03166100e2565b34801561016657600080fd5b506100ac610336565b34801561017b57600080fd5b506100ac61018a36600461094d565b6103ab565b34801561019b57600080fd5b506100e27f000000000000000000000000000000000000000000000000000000000000000081565b3480156101cf57600080fd5b506001546101e490600160a01b900460ff1681565b6040516100f69190610993565b3480156101fd57600080fd5b506100e27f000000000000000000000000000000000000000000000000000000000000000081565b34801561023157600080fd5b506100ac61024036600461094d565b6103d5565b34801561025157600080fd5b506100e27f000000000000000000000000000000000000000000000000000000000000000081565b600060018054600160a01b900460ff16908111156102995761029961097d565b036102a8576102a6610450565b565b6001808054600160a01b900460ff16908111156102c7576102c761097d565b036102a6576040516001600160a01b037f000000000000000000000000000000000000000000000000000000000000000016904780156108fc02916000818181858888f19350505050158015610321573d6000803e3d6000fd5b50565b61032c610603565b6102a6600061065d565b61033e610603565b600060018054600160a01b900460ff169081111561035e5761035e61097d565b03610378576001805460ff60a01b1916600160a01b179055565b6001808054600160a01b900460ff16908111156103975761039761097d565b036102a6576001805460ff60a01b19169055565b6103b3610603565b600180546001600160a01b0319166001600160a01b0392909216919091179055565b6103dd610603565b6001600160a01b0381166104475760405162461bcd60e51b815260206004820152602660248201527f4f776e61626c653a206e6577206f776e657220697320746865207a65726f206160448201526564647265737360d01b60648201526084015b60405180910390fd5b6103218161065d565b7f00000000000000000000000000000000000000000000000000000000000000006001600160a01b031663d0e30db0476040518263ffffffff1660e01b81526004016000604051808303818588803b1580156104ab57600080fd5b505af11580156104bf573d6000803e3d6000fd5b50506040516370a0823160e01b8152306004820152600093507f00000000000000000000000000000000000000000000000000000000000000006001600160a01b031692506370a082319150602401602060405180830381865afa15801561052b573d6000803e3d6000fd5b505050506040513d601f19601f8201168201806040525081019061054f91906109bb565b9050600060646105608360286109ea565b61056a9190610a07565b905060006105788284610a29565b6001549091506105b3907f0000000000000000000000000000000000000000000000000000000000000000906001600160a01b0316846106ad565b6105fe7f00000000000000000000000000000000000000000000000000000000000000007f0000000000000000000000000000000000000000000000000000000000000000836106ad565b505050565b6000546001600160a01b031633146102a65760405162461bcd60e51b815260206004820181905260248201527f4f776e61626c653a2063616c6c6572206973206e6f7420746865206f776e6572604482015260640161043e565b600080546001600160a01b038381166001600160a01b0319831681178455604051919092169283917f8be0079c531659141344cd1fd0a4f28419497f9722a3daafe3b4186f6b6457e09190a35050565b604080516001600160a01b03848116602483015260448083018590528351808403909101815260649092018352602080830180516001600160e01b031663a9059cbb60e01b17905283518085019094528084527f5361666545524332303a206c6f772d6c6576656c2063616c6c206661696c6564908401526105fe9286929160009161073d9185169084906107bd565b905080516000148061075e57508080602001905181019061075e9190610a3c565b6105fe5760405162461bcd60e51b815260206004820152602a60248201527f5361666545524332303a204552433230206f7065726174696f6e20646964206e6044820152691bdd081cdd58d8d9595960b21b606482015260840161043e565b60606107cc84846000856107d4565b949350505050565b6060824710156108355760405162461bcd60e51b815260206004820152602660248201527f416464726573733a20696e73756666696369656e742062616c616e636520666f6044820152651c8818d85b1b60d21b606482015260840161043e565b600080866001600160a01b031685876040516108519190610a82565b60006040518083038185875af1925050503d806000811461088e576040519150601f19603f3d011682016040523d82523d6000602084013e610893565b606091505b50915091506108a4878383876108af565b979650505050505050565b6060831561091e578251600003610917576001600160a01b0385163b6109175760405162461bcd60e51b815260206004820152601d60248201527f416464726573733a2063616c6c20746f206e6f6e2d636f6e7472616374000000604482015260640161043e565b50816107cc565b6107cc83838151156109335781518083602001fd5b8060405162461bcd60e51b815260040161043e9190610a9e565b60006020828403121561095f57600080fd5b81356001600160a01b038116811461097657600080fd5b9392505050565b634e487b7160e01b600052602160045260246000fd5b60208101600283106109b557634e487b7160e01b600052602160045260246000fd5b91905290565b6000602082840312156109cd57600080fd5b5051919050565b634e487b7160e01b600052601160045260246000fd5b8082028115828204841417610a0157610a016109d4565b92915050565b600082610a2457634e487b7160e01b600052601260045260246000fd5b500490565b81810381811115610a0157610a016109d4565b600060208284031215610a4e57600080fd5b8151801515811461097657600080fd5b60005b83811015610a79578181015183820152602001610a61565b50506000910152565b60008251610a94818460208701610a5e565b9190910192915050565b6020815260008251806020840152610abd816040850160208701610a5e565b601f01601f1916919091016040019291505056fea2646970667358221220017186d8f92a7a58958534d3f4488a368b6b291b45e3f4392b7b11b88fe762d764736f6c63430008140033",
  "devdoc": {
    "author": "@ChimeraDefi - admin@sharedstake.org - chimera_defi@protonmail.com",
    "kind": "dev",
    "methods": {
      "owner()": {
        "details": "Returns the address of the current owner."
      },
      "renounceOwnership()": {
        "details": "Leaves the contract without owner. It will not be possible to call `onlyOwner` functions. Can only be called by the current owner. NOTE: Renouncing ownership will leave the contract without an owner, thereby disabling any functionality that is only available to the owner."
      },
      "transferOwnership(address)": {
        "details": "Transfers ownership of the contract to a new account (`newOwner`). Can only be called by the current owner."
      }
    },
    "title": "RewardsReceiver - Rewards receiver contract for ETH2 CL + RL rewards",
    "version": 1
  },
  "userdoc": {
    "kind": "user",
    "methods": {},
    "version": 1
  },
  "storageLayout": {
    "storage": [
      {
        "astId": 4000,
        "contract": "contracts/v2/core/RewardsReceiver.sol:RewardsReceiver",
        "label": "_owner",
        "offset": 0,
        "slot": "0",
        "type": "t_address"
      },
      {
        "astId": 17953,
        "contract": "contracts/v2/core/RewardsReceiver.sol:RewardsReceiver",
        "label": "feeSplitter",
        "offset": 0,
        "slot": "1",
        "type": "t_address"
      },
      {
        "astId": 14629,
        "contract": "contracts/v2/core/RewardsReceiver.sol:RewardsReceiver",
        "label": "state",
        "offset": 20,
        "slot": "1",
        "type": "t_enum(State)14626"
      }
    ],
    "types": {
      "t_address": {
        "encoding": "inplace",
        "label": "address",
        "numberOfBytes": "20"
      },
      "t_enum(State)14626": {
        "encoding": "inplace",
        "label": "enum RewardsReceiver.State",
        "numberOfBytes": "1"
      }
    }
  }
}