{
  "address": "0xeCae9a07d5A38cfDd8723A1e5a7e5F46d0daA8eD",
  "abi": [
    {
      "inputs": [
        {
          "internalType": "address",
          "name": "_minter",
          "type": "address"
        },
        {
          "internalType": "address",
          "name": "_wsgEth",
          "type": "address"
        },
        {
          "internalType": "uint256",
          "name": "_epochLength",
          "type": "uint256"
        }
      ],
      "stateMutability": "nonpayable",
      "type": "constructor"
    },
    {
      "inputs": [],
      "name": "InvalidAmount",
      "type": "error"
    },
    {
      "inputs": [],
      "name": "IsNotPaused",
      "type": "error"
    },
    {
      "inputs": [],
      "name": "IsPaused",
      "type": "error"
    },
    {
      "inputs": [],
      "name": "PermissionDenied",
      "type": "error"
    },
    {
      "inputs": [],
      "name": "TooEarly",
      "type": "error"
    },
    {
      "anonymous": false,
      "inputs": [
        {
          "indexed": true,
          "internalType": "address",
          "name": "owner",
          "type": "address"
        },
        {
          "indexed": true,
          "internalType": "address",
          "name": "operator",
          "type": "address"
        },
        {
          "indexed": false,
          "internalType": "bool",
          "name": "value",
          "type": "bool"
        }
      ],
      "name": "OperatorSet",
      "type": "event"
    },
    {
      "anonymous": false,
      "inputs": [
        {
          "indexed": false,
          "internalType": "address",
          "name": "account",
          "type": "address"
        },
        {
          "indexed": false,
          "internalType": "uint16",
          "name": "item",
          "type": "uint16"
        }
      ],
      "name": "Paused",
      "type": "event"
    },
    {
      "anonymous": false,
      "inputs": [
        {
          "indexed": true,
          "internalType": "address",
          "name": "requester",
          "type": "address"
        },
        {
          "indexed": true,
          "internalType": "address",
          "name": "receiver",
          "type": "address"
        },
        {
          "indexed": false,
          "internalType": "uint256",
          "name": "shares",
          "type": "uint256"
        },
        {
          "indexed": false,
          "internalType": "uint256",
          "name": "assets",
          "type": "uint256"
        }
      ],
      "name": "Redeem",
      "type": "event"
    },
    {
      "anonymous": false,
      "inputs": [
        {
          "indexed": true,
          "internalType": "address",
          "name": "requester",
          "type": "address"
        },
        {
          "indexed": true,
          "internalType": "address",
          "name": "owner",
          "type": "address"
        },
        {
          "indexed": true,
          "internalType": "uint256",
          "name": "requestId",
          "type": "uint256"
        },
        {
          "indexed": false,
          "internalType": "address",
          "name": "operator",
          "type": "address"
        },
        {
          "indexed": false,
          "internalType": "uint256",
          "name": "assets",
          "type": "uint256"
        }
      ],
      "name": "RedeemRequest",
      "type": "event"
    },
    {
      "anonymous": false,
      "inputs": [
        {
          "indexed": true,
          "internalType": "bytes32",
          "name": "role",
          "type": "bytes32"
        },
        {
          "indexed": true,
          "internalType": "bytes32",
          "name": "previousAdminRole",
          "type": "bytes32"
        },
        {
          "indexed": true,
          "internalType": "bytes32",
          "name": "newAdminRole",
          "type": "bytes32"
        }
      ],
      "name": "RoleAdminChanged",
      "type": "event"
    },
    {
      "anonymous": false,
      "inputs": [
        {
          "indexed": true,
          "internalType": "bytes32",
          "name": "role",
          "type": "bytes32"
        },
        {
          "indexed": true,
          "internalType": "address",
          "name": "account",
          "type": "address"
        },
        {
          "indexed": true,
          "internalType": "address",
          "name": "sender",
          "type": "address"
        }
      ],
      "name": "RoleGranted",
      "type": "event"
    },
    {
      "anonymous": false,
      "inputs": [
        {
          "indexed": true,
          "internalType": "bytes32",
          "name": "role",
          "type": "bytes32"
        },
        {
          "indexed": true,
          "internalType": "address",
          "name": "account",
          "type": "address"
        },
        {
          "indexed": true,
          "internalType": "address",
          "name": "sender",
          "type": "address"
        }
      ],
      "name": "RoleRevoked",
      "type": "event"
    },
    {
      "anonymous": false,
      "inputs": [
        {
          "indexed": false,
          "internalType": "address",
          "name": "account",
          "type": "address"
        },
        {
          "indexed": false,
          "internalType": "uint16",
          "name": "item",
          "type": "uint16"
        }
      ],
      "name": "Unpaused",
      "type": "event"
    },
    {
      "stateMutability": "payable",
      "type": "fallback"
    },
    {
      "inputs": [],
      "name": "DEFAULT_ADMIN_ROLE",
      "outputs": [
        {
          "internalType": "bytes32",
          "name": "",
          "type": "bytes32"
        }
      ],
      "stateMutability": "view",
      "type": "function"
    },
    {
      "inputs": [],
      "name": "GOV",
      "outputs": [
        {
          "internalType": "bytes32",
          "name": "",
          "type": "bytes32"
        }
      ],
      "stateMutability": "view",
      "type": "function"
    },
    {
      "inputs": [],
      "name": "MINTER",
      "outputs": [
        {
          "internalType": "address",
          "name": "",
          "type": "address"
        }
      ],
      "stateMutability": "view",
      "type": "function"
    },
    {
      "inputs": [],
      "name": "WSGETH",
      "outputs": [
        {
          "internalType": "address",
          "name": "",
          "type": "address"
        }
      ],
      "stateMutability": "view",
      "type": "function"
    },
    {
      "inputs": [
        {
          "internalType": "address",
          "name": "sender",
          "type": "address"
        },
        {
          "internalType": "uint256",
          "name": "balanceOfSelf",
          "type": "uint256"
        },
        {
          "internalType": "uint256",
          "name": "amountToWithdraw",
          "type": "uint256"
        }
      ],
      "name": "_checkWithdraw",
      "outputs": [
        {
          "internalType": "bool",
          "name": "withdrawalAllowed",
          "type": "bool"
        }
      ],
      "stateMutability": "view",
      "type": "function"
    },
    {
      "inputs": [
        {
          "internalType": "address",
          "name": "sender",
          "type": "address"
        },
        {
          "internalType": "uint256",
          "name": "balanceOfSelf",
          "type": "uint256"
        },
        {
          "internalType": "uint256",
          "name": "amountToWithdraw",
          "type": "uint256"
        }
      ],
      "name": "_isWithdrawalAllowed",
      "outputs": [
        {
          "internalType": "bool",
          "name": "",
          "type": "bool"
        }
      ],
      "stateMutability": "view",
      "type": "function"
    },
    {
      "inputs": [
        {
          "internalType": "address",
          "name": "owner",
          "type": "address"
        }
      ],
      "name": "claimableRedeemRequest",
      "outputs": [
        {
          "internalType": "uint256",
          "name": "shares",
          "type": "uint256"
        }
      ],
      "stateMutability": "view",
      "type": "function"
    },
    {
      "inputs": [],
      "name": "epochLength",
      "outputs": [
        {
          "internalType": "uint256",
          "name": "",
          "type": "uint256"
        }
      ],
      "stateMutability": "view",
      "type": "function"
    },
    {
      "inputs": [
        {
          "internalType": "bytes32",
          "name": "role",
          "type": "bytes32"
        }
      ],
      "name": "getRoleAdmin",
      "outputs": [
        {
          "internalType": "bytes32",
          "name": "",
          "type": "bytes32"
        }
      ],
      "stateMutability": "view",
      "type": "function"
    },
    {
      "inputs": [
        {
          "internalType": "bytes32",
          "name": "role",
          "type": "bytes32"
        },
        {
          "internalType": "address",
          "name": "account",
          "type": "address"
        }
      ],
      "name": "grantRole",
      "outputs": [],
      "stateMutability": "nonpayable",
      "type": "function"
    },
    {
      "inputs": [
        {
          "internalType": "bytes32",
          "name": "role",
          "type": "bytes32"
        },
        {
          "internalType": "address",
          "name": "account",
          "type": "address"
        }
      ],
      "name": "hasRole",
      "outputs": [
        {
          "internalType": "bool",
          "name": "",
          "type": "bool"
        }
      ],
      "stateMutability": "view",
      "type": "function"
    },
    {
      "inputs": [
        {
          "internalType": "address",
          "name": "requester",
          "type": "address"
        },
        {
          "internalType": "address",
          "name": "operator",
          "type": "address"
        }
      ],
      "name": "isOperator",
      "outputs": [
        {
          "internalType": "bool",
          "name": "",
          "type": "bool"
        }
      ],
      "stateMutability": "view",
      "type": "function"
    },
    {
      "inputs": [
        {
          "internalType": "uint16",
          "name": "",
          "type": "uint16"
        }
      ],
      "name": "paused",
      "outputs": [
        {
          "internalType": "bool",
          "name": "",
          "type": "bool"
        }
      ],
      "stateMutability": "view",
      "type": "function"
    },
    {
      "inputs": [
        {
          "internalType": "address",
          "name": "owner",
          "type": "address"
        }
      ],
      "name": "pendingRedeemRequest",
      "outputs": [
        {
          "internalType": "uint256",
          "name": "shares",
          "type": "uint256"
        }
      ],
      "stateMutability": "view",
      "type": "function"
    },
    {
      "inputs": [
        {
          "internalType": "uint256",
          "name": "shares",
          "type": "uint256"
        },
        {
          "internalType": "address",
          "name": "receiver",
          "type": "address"
        },
        {
          "internalType": "address",
          "name": "requester",
          "type": "address"
        }
      ],
      "name": "redeem",
      "outputs": [
        {
          "internalType": "uint256",
          "name": "assets",
          "type": "uint256"
        }
      ],
      "stateMutability": "nonpayable",
      "type": "function"
    },
    {
      "inputs": [
        {
          "internalType": "address",
          "name": "",
          "type": "address"
        }
      ],
      "name": "redeemRequests",
      "outputs": [
        {
          "internalType": "uint256",
          "name": "",
          "type": "uint256"
        }
      ],
      "stateMutability": "view",
      "type": "function"
    },
    {
      "inputs": [
        {
          "internalType": "bytes32",
          "name": "role",
          "type": "bytes32"
        },
        {
          "internalType": "address",
          "name": "account",
          "type": "address"
        }
      ],
      "name": "renounceRole",
      "outputs": [],
      "stateMutability": "nonpayable",
      "type": "function"
    },
    {
      "inputs": [
        {
          "internalType": "uint256",
          "name": "shares",
          "type": "uint256"
        },
        {
          "internalType": "address",
          "name": "requester",
          "type": "address"
        },
        {
          "internalType": "address",
          "name": "owner",
          "type": "address"
        }
      ],
      "name": "requestRedeem",
      "outputs": [
        {
          "internalType": "uint256",
          "name": "requestId",
          "type": "uint256"
        }
      ],
      "stateMutability": "nonpayable",
      "type": "function"
    },
    {
      "inputs": [
        {
          "internalType": "bytes32",
          "name": "role",
          "type": "bytes32"
        },
        {
          "internalType": "address",
          "name": "account",
          "type": "address"
        }
      ],
      "name": "revokeRole",
      "outputs": [],
      "stateMutability": "nonpayable",
      "type": "function"
    },
    {
      "inputs": [
        {
          "internalType": "uint256",
          "name": "value",
          "type": "uint256"
        }
      ],
      "name": "setEpochLength",
      "outputs": [],
      "stateMutability": "nonpayable",
      "type": "function"
    },
    {
      "inputs": [
        {
          "internalType": "address",
          "name": "operator",
          "type": "address"
        },
        {
          "internalType": "bool",
          "name": "approved",
          "type": "bool"
        }
      ],
      "name": "setOperator",
      "outputs": [
        {
          "internalType": "bool",
          "name": "",
          "type": "bool"
        }
      ],
      "stateMutability": "nonpayable",
      "type": "function"
    },
    {
      "inputs": [
        {
          "internalType": "bytes4",
          "name": "interfaceId",
          "type": "bytes4"
        }
      ],
      "name": "supportsInterface",
      "outputs": [
        {
          "internalType": "bool",
          "name": "",
          "type": "bool"
        }
      ],
      "stateMutability": "view",
      "type": "function"
    },
    {
      "inputs": [
        {
          "internalType": "uint16",
          "name": "func",
          "type": "uint16"
        }
      ],
      "name": "togglePause",
      "outputs": [],
      "stateMutability": "nonpayable",
      "type": "function"
    },
    {
      "inputs": [],
      "name": "totalAssetsOut",
      "outputs": [
        {
          "internalType": "uint256",
          "name": "",
          "type": "uint256"
        }
      ],
      "stateMutability": "view",
      "type": "function"
    },
    {
      "inputs": [
        {
          "internalType": "address",
          "name": "",
          "type": "address"
        }
      ],
      "name": "userEntries",
      "outputs": [
        {
          "internalType": "uint256",
          "name": "amount",
          "type": "uint256"
        },
        {
          "internalType": "uint256",
          "name": "blocknum",
          "type": "uint256"
        }
      ],
      "stateMutability": "view",
      "type": "function"
    },
    {
      "stateMutability": "payable",
      "type": "receive"
    }
  ],
  "transactionHash": "0xbc76b2dd37beaf95452a02606061ccb2d6e6e7534f7ae6e760c0f0460b8b74e7",
  "args": [
    "0xd6Ad9a646330F1a937347a5cfaaDE57990109b5C",
    "0x514dfd2d10eC6775f030BA2abcf7A2445C0CA6Fb",
    1
  ],
  "numDeployments": 2,
  "solcInputHash": "61fc510774bb4eddca51caab8f8d5192",
  "bytecode": "0x60c06040523480156200001157600080fd5b5060405162001b0038038062001b008339810160408190526200003491620001b8565b6001805560048181556001600160a01b03848116608081905290841660a081905260405163095ea7b360e01b815292830191909152600019602483018190529163095ea7b3906044016020604051808303816000875af11580156200009d573d6000803e3d6000fd5b505050506040513d601f19601f82011682018060405250810190620000c39190620001f9565b50620000f07f8eeeb5290718f324aa0965d35cf24b6163c00698ab277824ce00bdf229264ecf33620000fa565b5050505062000224565b6000828152602081815260408083206001600160a01b038516845290915290205460ff1662000197576000828152602081815260408083206001600160a01b03851684529091529020805460ff19166001179055620001563390565b6001600160a01b0316816001600160a01b0316837f2f8788117e7eff1d82e926ec794901d17c78024a50270940304540a733656f0d60405160405180910390a45b5050565b80516001600160a01b0381168114620001b357600080fd5b919050565b600080600060608486031215620001ce57600080fd5b620001d9846200019b565b9250620001e9602085016200019b565b9150604084015190509250925092565b6000602082840312156200020c57600080fd5b815180151581146200021d57600080fd5b9392505050565b60805160a0516118856200027b600039600081816104940152818161092701528181610a0b0152610c3b01526000818161054001528181610d6401528181610da901528181610e1b0152610f9c01526118856000f3fe60806040526004361061015a5760003560e01c80637a6f12ff116100c8578063a217fddf11610084578063ba08765211610061578063ba087652146104ce578063d4b825a7146104ee578063d547741f1461050e578063fe6d81241461052e57005b8063a217fddf14610432578063b6363cf214610447578063b8902ff71461048257005b80637a6f12ff146103465780637ce7eada1461035c5780637d41c86e1461037c5780638d158c2a1461039c57806391d14854146103c95780639f10a990146103e957005b806336568abe1161011757806336568abe1461027a57806353dc1dd31461029a57806354eea796146102d0578063558a7297146102f057806357d775f8146103105780636e8b2bb81461032657005b806288d3e51461016357806301ffc9a714610196578063180cb47f146101c6578063248a9ca3146101fa5780632f2ff15d1461022a5780633375ed6b1461024a57005b3661016157005b005b34801561016f57600080fd5b5061018361017e366004611512565b610562565b6040519081526020015b60405180910390f35b3480156101a257600080fd5b506101b66101b136600461152d565b6105dc565b604051901515815260200161018d565b3480156101d257600080fd5b506101837f8eeeb5290718f324aa0965d35cf24b6163c00698ab277824ce00bdf229264ecf81565b34801561020657600080fd5b50610183610215366004611557565b60009081526020819052604090206001015490565b34801561023657600080fd5b50610161610245366004611570565b610613565b34801561025657600080fd5b506101b661026536600461159c565b60026020526000908152604090205460ff1681565b34801561028657600080fd5b50610161610295366004611570565b61063d565b3480156102a657600080fd5b506101836102b5366004611512565b6001600160a01b03166000908152600b602052604090205490565b3480156102dc57600080fd5b506101616102eb366004611557565b6106c0565b3480156102fc57600080fd5b506101b661030b3660046115ce565b6106f3565b34801561031c57600080fd5b5061018360045481565b34801561033257600080fd5b506101b6610341366004611605565b610763565b34801561035257600080fd5b5061018360095481565b34801561036857600080fd5b5061016161037736600461159c565b6107cc565b34801561038857600080fd5b50610183610397366004611638565b610825565b3480156103a857600080fd5b506101836103b7366004611512565b600b6020526000908152604090205481565b3480156103d557600080fd5b506101b66103e4366004611570565b610b26565b3480156103f557600080fd5b5061041d610404366004611512565b6003602052600090815260409020805460019091015482565b6040805192835260208301919091520161018d565b34801561043e57600080fd5b50610183600081565b34801561045357600080fd5b506101b6610462366004611674565b600560209081526000928352604080842090915290825290205460ff1681565b34801561048e57600080fd5b506104b67f000000000000000000000000000000000000000000000000000000000000000081565b6040516001600160a01b03909116815260200161018d565b3480156104da57600080fd5b506101836104e9366004611638565b610b4f565b3480156104fa57600080fd5b506101b6610509366004611605565b610ecb565b34801561051a57600080fd5b50610161610529366004611570565b610f68565b34801561053a57600080fd5b506104b67f000000000000000000000000000000000000000000000000000000000000000081565b6001600160a01b0381166000908152600b6020526040812054158015906105ae57506105ae82610590610f8d565b6001600160a01b0385166000908152600b6020526040902054610763565b156105cf57506001600160a01b03166000908152600b602052604090205490565b506000919050565b919050565b60006001600160e01b03198216637965db0b60e01b148061060d57506301ffc9a760e01b6001600160e01b03198316145b92915050565b60008281526020819052604090206001015461062e81610fc8565b6106388383610fd5565b505050565b6001600160a01b03811633146106b25760405162461bcd60e51b815260206004820152602f60248201527f416363657373436f6e74726f6c3a2063616e206f6e6c792072656e6f756e636560448201526e103937b632b9903337b91039b2b63360891b60648201526084015b60405180910390fd5b6106bc8282611059565b5050565b7f8eeeb5290718f324aa0965d35cf24b6163c00698ab277824ce00bdf229264ecf6106ea81610fc8565b6106bc826110be565b3360008181526005602090815260408083206001600160a01b038716808552908352818420805460ff191687151590811790915591519182529293917fceb576d9f15e4e200fdb5096d64d5dfd667e16def20c1eefd14256d8e3faa267910160405180910390a350600192915050565b6001600160a01b038316600090815260036020908152604080832081518083019092528054825260010154918101919091528383118015906107a6575080518311155b80156107c3575060045481602001516107bf91906116b4565b4310155b95945050505050565b7f8eeeb5290718f324aa0965d35cf24b6163c00698ab277824ce00bdf229264ecf6107f681610fc8565b61ffff821660009081526002602052604090205460ff16801561081c57610638836110e4565b61063883611149565b6000816001600160a01b038116331480159061086557506001600160a01b038116600090815260056020908152604080832033845290915290205460ff16155b1561088357604051630782484160e21b815260040160405180910390fd5b61088b61118f565b6001600081905260026020527fe90b7bceb6e7df5418fb78d8ee546e97c83a08bbccc01a0644d599ccd2a7c2e05460ff16156108da57604051631309a56360e01b815260040160405180910390fd5b856000036108fb5760405163162908e360e11b815260040160405180910390fd5b6040516323b872dd60e01b81526001600160a01b038581166004830152306024830152604482018890527f000000000000000000000000000000000000000000000000000000000000000016906323b872dd906064016020604051808303816000875af1158015610970573d6000803e3d6000fd5b505050506040513d601f19601f8201168201806040525081019061099491906116c7565b50600780549060006109a5836116e4565b909155506040805180820182526001600160a01b03888116825260208083018b81526000868152600a909252848220935184546001600160a01b03191690841617845551600190930192909255915163266d6a8360e11b8152600481018a9052929550917f000000000000000000000000000000000000000000000000000000000000000090911690634cdad50690602401602060405180830381865afa158015610a54573d6000803e3d6000fd5b505050506040513d601f19601f82011682018060405250810190610a7891906116fd565b9050610a8485826111e8565b8060066000828254610a9691906116b4565b90915550506001600160a01b0386166000908152600b602052604081208054839290610ac39084906116b4565b9091555050604080513381526020810189905285916001600160a01b0380891692908a16917f1fdc681a13d8c5da54e301c7ce6542dcde4581e4725043fdab2db12ddc574506910160405180910390a45050610b1e60018055565b509392505050565b6000918252602082815260408084206001600160a01b0393909316845291905290205460ff1690565b6000816001600160a01b0381163314801590610b8f57506001600160a01b038116600090815260056020908152604080832033845290915290205460ff16155b15610bad57604051630782484160e21b815260040160405180910390fd5b610bb561118f565b6002600081905260208190527f679795a0195a1b76cdebb7c51d74e058aee92919b8c3389af86ef24535e8a28c5460ff1615610c0457604051631309a56360e01b815260040160405180910390fd5b85600003610c255760405163162908e360e11b815260040160405180910390fd5b60405163266d6a8360e11b8152600481018790527f00000000000000000000000000000000000000000000000000000000000000006001600160a01b031690634cdad50690602401602060405180830381865afa158015610c8a573d6000803e3d6000fd5b505050506040513d601f19601f82011682018060405250810190610cae91906116fd565b925082610cba85610562565b1015610cdc57610cd284610ccc610f8d565b85610ecb565b5060009250610ec1565b610ce68484611260565b6001600160a01b0384166000908152600b602052604081208054859290610d0e908490611716565b925050819055508260066000828254610d279190611716565b925050819055508260096000828254610d4091906116b4565b909155505060088054906000610d55836116e4565b90915550506001600160a01b037f0000000000000000000000000000000000000000000000000000000000000000163180841115610df5576000610d998286611716565b6040519091506001600160a01b037f0000000000000000000000000000000000000000000000000000000000000000169082156108fc029083906000818181858888f19350505050158015610df2573d6000803e3d6000fd5b50505b60405163566110b560e11b8152600481018890526001600160a01b0387811660248301527f0000000000000000000000000000000000000000000000000000000000000000169063acc2216a90604401600060405180830381600087803b158015610e5f57600080fd5b505af1158015610e73573d6000803e3d6000fd5b5050604080518a8152602081018890526001600160a01b03808b169450891692507f3f693fff038bb8a046aa76d9516190ac7444f7d69cf952c4cbdc086fdef2d6fc910160405180910390a3505b50610b1e60018055565b6001600160a01b03831660009081526003602090815260408083208151808301909252805482526001015491810191909152838311801590610f0e575080518311155b610f2b5760405163162908e360e11b815260040160405180910390fd5b6004548160200151610f3d91906116b4565b431015610f5d5760405163085de62560e01b815260040160405180910390fd5b506001949350505050565b600082815260208190526040902060010154610f8381610fc8565b6106388383611059565b6000610fc36001600160a01b037f00000000000000000000000000000000000000000000000000000000000000001631476116b4565b905090565b610fd281336112ed565b50565b610fdf8282610b26565b6106bc576000828152602081815260408083206001600160a01b03851684529091529020805460ff191660011790556110153390565b6001600160a01b0316816001600160a01b0316837f2f8788117e7eff1d82e926ec794901d17c78024a50270940304540a733656f0d60405160405180910390a45050565b6110638282610b26565b156106bc576000828152602081815260408083206001600160a01b0385168085529252808320805460ff1916905551339285917ff6391f5c32d9c69d2a47ea670b442974b53935d1edc7fd64eb21e047a839171b9190a45050565b806000036110df5760405163162908e360e11b815260040160405180910390fd5b600455565b61ffff81166000908152600260205260409020805460ff191690557ffecc441e78e32a5c28004d47baebe659faee4271cbb13a7c05457fed0c771232335b604080516001600160a01b03909216825261ffff841660208301520160405180910390a150565b61ffff81166000908152600260205260409020805460ff191660011790557f38eb43248f2146c7882ffb321eebe73c10ee8fc9fe3a42102dd07937caba4f536111223390565b6002600154036111e15760405162461bcd60e51b815260206004820152601f60248201527f5265656e7472616e637947756172643a207265656e7472616e742063616c6c0060448201526064016106a9565b6002600155565b6001600160a01b03821660009081526003602090815260409182902082518084019093528054808452600190910154918301919091526112299083906116b4565b81524360208083019182526001600160a01b0390941660009081526003909452604090932090518155915160019092019190915550565b6001600160a01b03821660009081526003602090815260409182902082518084019093528054808452600190910154918301919091528211156112b65760405163162908e360e11b815260040160405180910390fd5b805182036112e05750506001600160a01b0316600090815260036020526040812081815560010155565b8051611229908390611716565b6112f78282610b26565b6106bc5761130481611346565b61130f836020611358565b60405160200161132092919061174d565b60408051601f198184030181529082905262461bcd60e51b82526106a9916004016117c2565b606061060d6001600160a01b03831660145b606060006113678360026117f5565b6113729060026116b4565b67ffffffffffffffff81111561138a5761138a61180c565b6040519080825280601f01601f1916602001820160405280156113b4576020820181803683370190505b509050600360fc1b816000815181106113cf576113cf611822565b60200101906001600160f81b031916908160001a905350600f60fb1b816001815181106113fe576113fe611822565b60200101906001600160f81b031916908160001a90535060006114228460026117f5565b61142d9060016116b4565b90505b60018111156114a5576f181899199a1a9b1b9c1cb0b131b232b360811b85600f166010811061146157611461611822565b1a60f81b82828151811061147757611477611822565b60200101906001600160f81b031916908160001a90535060049490941c9361149e81611838565b9050611430565b5083156114f45760405162461bcd60e51b815260206004820181905260248201527f537472696e67733a20686578206c656e67746820696e73756666696369656e7460448201526064016106a9565b9392505050565b80356001600160a01b03811681146105d757600080fd5b60006020828403121561152457600080fd5b6114f4826114fb565b60006020828403121561153f57600080fd5b81356001600160e01b0319811681146114f457600080fd5b60006020828403121561156957600080fd5b5035919050565b6000806040838503121561158357600080fd5b82359150611593602084016114fb565b90509250929050565b6000602082840312156115ae57600080fd5b813561ffff811681146114f457600080fd5b8015158114610fd257600080fd5b600080604083850312156115e157600080fd5b6115ea836114fb565b915060208301356115fa816115c0565b809150509250929050565b60008060006060848603121561161a57600080fd5b611623846114fb565b95602085013595506040909401359392505050565b60008060006060848603121561164d57600080fd5b8335925061165d602085016114fb565b915061166b604085016114fb565b90509250925092565b6000806040838503121561168757600080fd5b611690836114fb565b9150611593602084016114fb565b634e487b7160e01b600052601160045260246000fd5b8082018082111561060d5761060d61169e565b6000602082840312156116d957600080fd5b81516114f4816115c0565b6000600182016116f6576116f661169e565b5060010190565b60006020828403121561170f57600080fd5b5051919050565b8181038181111561060d5761060d61169e565b60005b8381101561174457818101518382015260200161172c565b50506000910152565b7f416363657373436f6e74726f6c3a206163636f756e7420000000000000000000815260008351611785816017850160208801611729565b7001034b99036b4b9b9b4b733903937b6329607d1b60179184019182015283516117b6816028840160208801611729565b01602801949350505050565b60208152600082518060208401526117e1816040850160208701611729565b601f01601f19169190910160400192915050565b808202811582820484141761060d5761060d61169e565b634e487b7160e01b600052604160045260246000fd5b634e487b7160e01b600052603260045260246000fd5b6000816118475761184761169e565b50600019019056fea26469706673582212203e038757f39428c490c120d2bc8e928fb9cd5cff6c05ac3c1860bd22d40ef3ae64736f6c63430008140033",
  "devdoc": {
    "author": "@ChimeraDefi - chimera_defi@protonmail.com | sharedstake.org",
    "details": "- ERC-7540 inspired withdrawal contract This contract is designed to be used with SharedDepositMinterV2 contract As a module extension that adds 7540 methods requestRedeem and redeem Example flow -> user calls requestRedeem(user, user, userShares) user calls setOperator(admin OR protocol provided keeper, true) admin can now call redeem on the users behalf if needed after epoch user calls redeem(user, user, userShares) after waiting for epoch Caveats: If the user requests another redemption, before fulfillment, this resets the epoch length clock for their request Basic upgrade path: 1. Call togglePause(1), this disables the requestRedeem fn so no new requests 2. Deploy new contract, direct users to it 3. Fulfill any remaining redeemRequests i.e. totalPendingRequest, for all RedeemRequest events from requestsFulfilled to requestsCreated",
    "events": {
      "Paused(address,uint16)": {
        "details": "Emitted when the pause is triggered by `account`."
      },
      "RoleAdminChanged(bytes32,bytes32,bytes32)": {
        "details": "Emitted when `newAdminRole` is set as ``role``'s admin role, replacing `previousAdminRole` `DEFAULT_ADMIN_ROLE` is the starting admin for all roles, despite {RoleAdminChanged} not being emitted signaling this. _Available since v3.1._"
      },
      "RoleGranted(bytes32,address,address)": {
        "details": "Emitted when `account` is granted `role`. `sender` is the account that originated the contract call, an admin role bearer except when using {AccessControl-_setupRole}."
      },
      "RoleRevoked(bytes32,address,address)": {
        "details": "Emitted when `account` is revoked `role`. `sender` is the account that originated the contract call:   - if using `revokeRole`, it is the admin role bearer   - if using `renounceRole`, it is the role bearer (i.e. `account`)"
      },
      "Unpaused(address,uint16)": {
        "details": "Emitted when the pause is lifted by `account`."
      }
    },
    "kind": "dev",
    "methods": {
      "getRoleAdmin(bytes32)": {
        "details": "Returns the admin role that controls `role`. See {grantRole} and {revokeRole}. To change a role's admin, use {_setRoleAdmin}."
      },
      "grantRole(bytes32,address)": {
        "details": "Grants `role` to `account`. If `account` had not been already granted `role`, emits a {RoleGranted} event. Requirements: - the caller must have ``role``'s admin role. May emit a {RoleGranted} event."
      },
      "hasRole(bytes32,address)": {
        "details": "Returns `true` if `account` has been granted `role`."
      },
      "renounceRole(bytes32,address)": {
        "details": "Revokes `role` from the calling account. Roles are often managed via {grantRole} and {revokeRole}: this function's purpose is to provide a mechanism for accounts to lose their privileges if they are compromised (such as when a trusted device is misplaced). If the calling account had been revoked `role`, emits a {RoleRevoked} event. Requirements: - the caller must be `account`. May emit a {RoleRevoked} event."
      },
      "revokeRole(bytes32,address)": {
        "details": "Revokes `role` from `account`. If `account` had been granted `role`, emits a {RoleRevoked} event. Requirements: - the caller must have ``role``'s admin role. May emit a {RoleRevoked} event."
      },
      "supportsInterface(bytes4)": {
        "details": "See {IERC165-supportsInterface}."
      }
    },
    "title": "WithdrawalQueue",
    "version": 1
  },
  "userdoc": {
    "kind": "user",
    "methods": {},
    "version": 1
  },
  "storageLayout": {
    "storage": [
      {
        "astId": 3628,
        "contract": "contracts/v2/core/WithdrawalQueue.sol:WithdrawalQueue",
        "label": "_roles",
        "offset": 0,
        "slot": "0",
        "type": "t_mapping(t_bytes32,t_struct(RoleData)3623_storage)"
      },
      {
        "astId": 4774,
        "contract": "contracts/v2/core/WithdrawalQueue.sol:WithdrawalQueue",
        "label": "_status",
        "offset": 0,
        "slot": "1",
        "type": "t_uint256"
      },
      {
        "astId": 17088,
        "contract": "contracts/v2/core/WithdrawalQueue.sol:WithdrawalQueue",
        "label": "paused",
        "offset": 0,
        "slot": "2",
        "type": "t_mapping(t_uint16,t_bool)"
      },
      {
        "astId": 16855,
        "contract": "contracts/v2/core/WithdrawalQueue.sol:WithdrawalQueue",
        "label": "userEntries",
        "offset": 0,
        "slot": "3",
        "type": "t_mapping(t_address,t_struct(UserEntry)16850_storage)"
      },
      {
        "astId": 16857,
        "contract": "contracts/v2/core/WithdrawalQueue.sol:WithdrawalQueue",
        "label": "epochLength",
        "offset": 0,
        "slot": "4",
        "type": "t_uint256"
      },
      {
        "astId": 17187,
        "contract": "contracts/v2/core/WithdrawalQueue.sol:WithdrawalQueue",
        "label": "isOperator",
        "offset": 0,
        "slot": "5",
        "type": "t_mapping(t_address,t_mapping(t_address,t_bool))"
      },
      {
        "astId": 15888,
        "contract": "contracts/v2/core/WithdrawalQueue.sol:WithdrawalQueue",
        "label": "totalPendingRequest",
        "offset": 0,
        "slot": "6",
        "type": "t_uint256"
      },
      {
        "astId": 15890,
        "contract": "contracts/v2/core/WithdrawalQueue.sol:WithdrawalQueue",
        "label": "requestsCreated",
        "offset": 0,
        "slot": "7",
        "type": "t_uint256"
      },
      {
        "astId": 15892,
        "contract": "contracts/v2/core/WithdrawalQueue.sol:WithdrawalQueue",
        "label": "requestsFulfilled",
        "offset": 0,
        "slot": "8",
        "type": "t_uint256"
      },
      {
        "astId": 15894,
        "contract": "contracts/v2/core/WithdrawalQueue.sol:WithdrawalQueue",
        "label": "totalAssetsOut",
        "offset": 0,
        "slot": "9",
        "type": "t_uint256"
      },
      {
        "astId": 15904,
        "contract": "contracts/v2/core/WithdrawalQueue.sol:WithdrawalQueue",
        "label": "requests",
        "offset": 0,
        "slot": "10",
        "type": "t_mapping(t_uint256,t_struct(Request)15882_storage)"
      },
      {
        "astId": 15908,
        "contract": "contracts/v2/core/WithdrawalQueue.sol:WithdrawalQueue",
        "label": "redeemRequests",
        "offset": 0,
        "slot": "11",
        "type": "t_mapping(t_address,t_uint256)"
      }
    ],
    "types": {
      "t_address": {
        "encoding": "inplace",
        "label": "address",
        "numberOfBytes": "20"
      },
      "t_bool": {
        "encoding": "inplace",
        "label": "bool",
        "numberOfBytes": "1"
      },
      "t_bytes32": {
        "encoding": "inplace",
        "label": "bytes32",
        "numberOfBytes": "32"
      },
      "t_mapping(t_address,t_bool)": {
        "encoding": "mapping",
        "key": "t_address",
        "label": "mapping(address => bool)",
        "numberOfBytes": "32",
        "value": "t_bool"
      },
      "t_mapping(t_address,t_mapping(t_address,t_bool))": {
        "encoding": "mapping",
        "key": "t_address",
        "label": "mapping(address => mapping(address => bool))",
        "numberOfBytes": "32",
        "value": "t_mapping(t_address,t_bool)"
      },
      "t_mapping(t_address,t_struct(UserEntry)16850_storage)": {
        "encoding": "mapping",
        "key": "t_address",
        "label": "mapping(address => struct FIFOQueue.UserEntry)",
        "numberOfBytes": "32",
        "value": "t_struct(UserEntry)16850_storage"
      },
      "t_mapping(t_address,t_uint256)": {
        "encoding": "mapping",
        "key": "t_address",
        "label": "mapping(address => uint256)",
        "numberOfBytes": "32",
        "value": "t_uint256"
      },
      "t_mapping(t_bytes32,t_struct(RoleData)3623_storage)": {
        "encoding": "mapping",
        "key": "t_bytes32",
        "label": "mapping(bytes32 => struct AccessControl.RoleData)",
        "numberOfBytes": "32",
        "value": "t_struct(RoleData)3623_storage"
      },
      "t_mapping(t_uint16,t_bool)": {
        "encoding": "mapping",
        "key": "t_uint16",
        "label": "mapping(uint16 => bool)",
        "numberOfBytes": "32",
        "value": "t_bool"
      },
      "t_mapping(t_uint256,t_struct(Request)15882_storage)": {
        "encoding": "mapping",
        "key": "t_uint256",
        "label": "mapping(uint256 => struct WithdrawalQueue.Request)",
        "numberOfBytes": "32",
        "value": "t_struct(Request)15882_storage"
      },
      "t_struct(Request)15882_storage": {
        "encoding": "inplace",
        "label": "struct WithdrawalQueue.Request",
        "members": [
          {
            "astId": 15879,
            "contract": "contracts/v2/core/WithdrawalQueue.sol:WithdrawalQueue",
            "label": "requester",
            "offset": 0,
            "slot": "0",
            "type": "t_address"
          },
          {
            "astId": 15881,
            "contract": "contracts/v2/core/WithdrawalQueue.sol:WithdrawalQueue",
            "label": "shares",
            "offset": 0,
            "slot": "1",
            "type": "t_uint256"
          }
        ],
        "numberOfBytes": "64"
      },
      "t_struct(RoleData)3623_storage": {
        "encoding": "inplace",
        "label": "struct AccessControl.RoleData",
        "members": [
          {
            "astId": 3620,
            "contract": "contracts/v2/core/WithdrawalQueue.sol:WithdrawalQueue",
            "label": "members",
            "offset": 0,
            "slot": "0",
            "type": "t_mapping(t_address,t_bool)"
          },
          {
            "astId": 3622,
            "contract": "contracts/v2/core/WithdrawalQueue.sol:WithdrawalQueue",
            "label": "adminRole",
            "offset": 0,
            "slot": "1",
            "type": "t_bytes32"
          }
        ],
        "numberOfBytes": "64"
      },
      "t_struct(UserEntry)16850_storage": {
        "encoding": "inplace",
        "label": "struct FIFOQueue.UserEntry",
        "members": [
          {
            "astId": 16847,
            "contract": "contracts/v2/core/WithdrawalQueue.sol:WithdrawalQueue",
            "label": "amount",
            "offset": 0,
            "slot": "0",
            "type": "t_uint256"
          },
          {
            "astId": 16849,
            "contract": "contracts/v2/core/WithdrawalQueue.sol:WithdrawalQueue",
            "label": "blocknum",
            "offset": 0,
            "slot": "1",
            "type": "t_uint256"
          }
        ],
        "numberOfBytes": "64"
      },
      "t_uint16": {
        "encoding": "inplace",
        "label": "uint16",
        "numberOfBytes": "2"
      },
      "t_uint256": {
        "encoding": "inplace",
        "label": "uint256",
        "numberOfBytes": "32"
      }
    }
  }
}